{
  "contractName": "FVS",
  "abi": [
    {
      "constant": true,
      "inputs": [
        {
          "name": "",
          "type": "uint256"
        },
        {
          "name": "",
          "type": "uint256"
        }
      ],
      "name": "rawMaterialsDetail",
      "outputs": [
        {
          "name": "materialID",
          "type": "uint256"
        },
        {
          "name": "materialName",
          "type": "string"
        },
        {
          "name": "quantity",
          "type": "uint256"
        },
        {
          "name": "numberOfProducts",
          "type": "uint256"
        },
        {
          "name": "productName",
          "type": "string"
        },
        {
          "name": "companyName",
          "type": "string"
        },
        {
          "name": "purchaseDate",
          "type": "uint256"
        },
        {
          "name": "validtill",
          "type": "uint256"
        },
        {
          "name": "expirayDate",
          "type": "uint256"
        }
      ],
      "payable": false,
      "stateMutability": "view",
      "type": "function"
    },
    {
      "constant": true,
      "inputs": [
        {
          "name": "",
          "type": "uint256"
        }
      ],
      "name": "manufacturerDetail",
      "outputs": [
        {
          "name": "companyName",
          "type": "string"
        },
        {
          "name": "email",
          "type": "string"
        },
        {
          "name": "phone",
          "type": "uint256"
        },
        {
          "name": "companyAddress",
          "type": "string"
        },
        {
          "name": "state",
          "type": "string"
        },
        {
          "name": "place",
          "type": "string"
        },
        {
          "name": "pincode",
          "type": "uint256"
        },
        {
          "name": "licenceNo",
          "type": "string"
        }
      ],
      "payable": false,
      "stateMutability": "view",
      "type": "function"
    },
    {
      "constant": true,
      "inputs": [
        {
          "name": "",
          "type": "uint256"
        }
      ],
      "name": "productDetail",
      "outputs": [
        {
          "name": "productName",
          "type": "string"
        },
        {
          "name": "quantity",
          "type": "uint256"
        },
        {
          "name": "companyName",
          "type": "string"
        },
        {
          "name": "MRP",
          "type": "uint256"
        },
        {
          "name": "expireInMonths",
          "type": "uint256"
        },
        {
          "name": "MFD",
          "type": "uint256"
        },
        {
          "name": "EXP",
          "type": "uint256"
        },
        {
          "name": "batch",
          "type": "uint256"
        }
      ],
      "payable": false,
      "stateMutability": "view",
      "type": "function"
    },
    {
      "constant": true,
      "inputs": [
        {
          "name": "",
          "type": "uint256"
        }
      ],
      "name": "rawDealerDetail",
      "outputs": [
        {
          "name": "companyName",
          "type": "string"
        },
        {
          "name": "email",
          "type": "string"
        },
        {
          "name": "phone",
          "type": "uint256"
        },
        {
          "name": "companyAddress",
          "type": "string"
        },
        {
          "name": "state",
          "type": "string"
        },
        {
          "name": "place",
          "type": "string"
        },
        {
          "name": "pincode",
          "type": "uint256"
        },
        {
          "name": "licenceNo",
          "type": "string"
        }
      ],
      "payable": false,
      "stateMutability": "view",
      "type": "function"
    },
    {
      "constant": true,
      "inputs": [
        {
          "name": "",
          "type": "uint256"
        }
      ],
      "name": "soldORnot",
      "outputs": [
        {
          "name": "",
          "type": "uint256"
        }
      ],
      "payable": false,
      "stateMutability": "view",
      "type": "function"
    },
    {
      "constant": true,
      "inputs": [],
      "name": "month",
      "outputs": [
        {
          "name": "",
          "type": "uint256"
        }
      ],
      "payable": false,
      "stateMutability": "view",
      "type": "function"
    },
    {
      "constant": true,
      "inputs": [
        {
          "name": "",
          "type": "uint256"
        },
        {
          "name": "",
          "type": "uint256"
        }
      ],
      "name": "billed",
      "outputs": [
        {
          "name": "shopID",
          "type": "string"
        },
        {
          "name": "purchaseDate",
          "type": "uint256"
        },
        {
          "name": "productID",
          "type": "uint256"
        }
      ],
      "payable": false,
      "stateMutability": "view",
      "type": "function"
    },
    {
      "constant": true,
      "inputs": [
        {
          "name": "",
          "type": "uint256"
        },
        {
          "name": "",
          "type": "uint256"
        }
      ],
      "name": "batchOfproducts",
      "outputs": [
        {
          "name": "",
          "type": "uint256"
        }
      ],
      "payable": false,
      "stateMutability": "view",
      "type": "function"
    },
    {
      "constant": true,
      "inputs": [
        {
          "name": "",
          "type": "uint256"
        }
      ],
      "name": "sellerDetail",
      "outputs": [
        {
          "name": "sellerName",
          "type": "string"
        },
        {
          "name": "email",
          "type": "string"
        },
        {
          "name": "phone",
          "type": "uint256"
        },
        {
          "name": "sellerAddress",
          "type": "string"
        },
        {
          "name": "state",
          "type": "string"
        },
        {
          "name": "place",
          "type": "string"
        },
        {
          "name": "pincode",
          "type": "uint256"
        },
        {
          "name": "licenceNo",
          "type": "string"
        }
      ],
      "payable": false,
      "stateMutability": "view",
      "type": "function"
    },
    {
      "constant": true,
      "inputs": [
        {
          "name": "",
          "type": "uint256"
        }
      ],
      "name": "NOPcount",
      "outputs": [
        {
          "name": "",
          "type": "uint256"
        }
      ],
      "payable": false,
      "stateMutability": "view",
      "type": "function"
    },
    {
      "constant": true,
      "inputs": [],
      "name": "currentTime",
      "outputs": [
        {
          "name": "",
          "type": "uint256"
        }
      ],
      "payable": false,
      "stateMutability": "view",
      "type": "function"
    },
    {
      "constant": true,
      "inputs": [],
      "name": "MAXcount",
      "outputs": [
        {
          "name": "",
          "type": "uint256"
        }
      ],
      "payable": false,
      "stateMutability": "view",
      "type": "function"
    },
    {
      "constant": true,
      "inputs": [],
      "name": "EXPdate",
      "outputs": [
        {
          "name": "",
          "type": "uint256"
        }
      ],
      "payable": false,
      "stateMutability": "view",
      "type": "function"
    },
    {
      "inputs": [],
      "payable": false,
      "stateMutability": "nonpayable",
      "type": "constructor"
    },
    {
      "constant": false,
      "inputs": [
        {
          "name": "_companyID",
          "type": "uint256"
        },
        {
          "name": "_companyName",
          "type": "string"
        },
        {
          "name": "_email",
          "type": "string"
        },
        {
          "name": "_phone",
          "type": "uint256"
        },
        {
          "name": "_companyAddress",
          "type": "string"
        },
        {
          "name": "_state",
          "type": "string"
        },
        {
          "name": "_place",
          "type": "string"
        },
        {
          "name": "_pincode",
          "type": "uint256"
        },
        {
          "name": "_licenceNo",
          "type": "string"
        }
      ],
      "name": "setRawdealer",
      "outputs": [
        {
          "name": "",
          "type": "bool"
        }
      ],
      "payable": false,
      "stateMutability": "nonpayable",
      "type": "function"
    },
    {
      "constant": true,
      "inputs": [
        {
          "name": "_companyID",
          "type": "uint256"
        }
      ],
      "name": "getRawdealer",
      "outputs": [
        {
          "name": "_companyName",
          "type": "string"
        },
        {
          "name": "_email",
          "type": "string"
        },
        {
          "name": "_phone",
          "type": "uint256"
        },
        {
          "name": "_companyAddress",
          "type": "string"
        },
        {
          "name": "_state",
          "type": "string"
        },
        {
          "name": "_place",
          "type": "string"
        },
        {
          "name": "_pincode",
          "type": "uint256"
        },
        {
          "name": "_licenceNo",
          "type": "string"
        }
      ],
      "payable": false,
      "stateMutability": "view",
      "type": "function"
    },
    {
      "constant": false,
      "inputs": [
        {
          "name": "_companyID",
          "type": "uint256"
        },
        {
          "name": "_companyName",
          "type": "string"
        },
        {
          "name": "_email",
          "type": "string"
        },
        {
          "name": "_phone",
          "type": "uint256"
        },
        {
          "name": "_companyAddress",
          "type": "string"
        },
        {
          "name": "_state",
          "type": "string"
        },
        {
          "name": "_place",
          "type": "string"
        },
        {
          "name": "_pincode",
          "type": "uint256"
        },
        {
          "name": "_licenceNo",
          "type": "string"
        }
      ],
      "name": "setManufacturer",
      "outputs": [
        {
          "name": "",
          "type": "bool"
        }
      ],
      "payable": false,
      "stateMutability": "nonpayable",
      "type": "function"
    },
    {
      "constant": true,
      "inputs": [
        {
          "name": "_companyID",
          "type": "uint256"
        }
      ],
      "name": "getManufacturer",
      "outputs": [
        {
          "name": "_companyName",
          "type": "string"
        },
        {
          "name": "_email",
          "type": "string"
        },
        {
          "name": "_phone",
          "type": "uint256"
        },
        {
          "name": "_companyAddress",
          "type": "string"
        },
        {
          "name": "_state",
          "type": "string"
        },
        {
          "name": "_place",
          "type": "string"
        },
        {
          "name": "_pincode",
          "type": "uint256"
        },
        {
          "name": "_licenceNo",
          "type": "string"
        }
      ],
      "payable": false,
      "stateMutability": "view",
      "type": "function"
    },
    {
      "constant": false,
      "inputs": [
        {
          "name": "_sellerID",
          "type": "uint256"
        },
        {
          "name": "_sellerName",
          "type": "string"
        },
        {
          "name": "_email",
          "type": "string"
        },
        {
          "name": "_phone",
          "type": "uint256"
        },
        {
          "name": "_sellerAddress",
          "type": "string"
        },
        {
          "name": "_state",
          "type": "string"
        },
        {
          "name": "_place",
          "type": "string"
        },
        {
          "name": "_pincode",
          "type": "uint256"
        },
        {
          "name": "_licenceNo",
          "type": "string"
        }
      ],
      "name": "setSeller",
      "outputs": [
        {
          "name": "",
          "type": "bool"
        }
      ],
      "payable": false,
      "stateMutability": "nonpayable",
      "type": "function"
    },
    {
      "constant": true,
      "inputs": [
        {
          "name": "_sellerID",
          "type": "uint256"
        }
      ],
      "name": "getSeller",
      "outputs": [
        {
          "name": "_sellerName",
          "type": "string"
        },
        {
          "name": "_email",
          "type": "string"
        },
        {
          "name": "_phone",
          "type": "uint256"
        },
        {
          "name": "_sellerAddress",
          "type": "string"
        },
        {
          "name": "_state",
          "type": "string"
        },
        {
          "name": "_place",
          "type": "string"
        },
        {
          "name": "_pincode",
          "type": "uint256"
        },
        {
          "name": "_licenceNo",
          "type": "string"
        }
      ],
      "payable": false,
      "stateMutability": "view",
      "type": "function"
    },
    {
      "constant": false,
      "inputs": [
        {
          "name": "_batch",
          "type": "uint256"
        },
        {
          "name": "_materialID",
          "type": "uint256"
        },
        {
          "name": "_materialName",
          "type": "string"
        },
        {
          "name": "_quantity",
          "type": "uint256"
        },
        {
          "name": "_numberOfProducts",
          "type": "uint256"
        },
        {
          "name": "_productName",
          "type": "string"
        },
        {
          "name": "_companyName",
          "type": "string"
        },
        {
          "name": "_purchaseDate",
          "type": "uint256"
        },
        {
          "name": "_validtill",
          "type": "uint256"
        },
        {
          "name": "_expirayDate",
          "type": "uint256"
        }
      ],
      "name": "setRawMaterial",
      "outputs": [],
      "payable": false,
      "stateMutability": "nonpayable",
      "type": "function"
    },
    {
      "constant": true,
      "inputs": [
        {
          "name": "_batch",
          "type": "uint256"
        }
      ],
      "name": "getLen",
      "outputs": [
        {
          "name": "_len",
          "type": "uint256"
        }
      ],
      "payable": false,
      "stateMutability": "view",
      "type": "function"
    },
    {
      "constant": true,
      "inputs": [
        {
          "name": "_batch",
          "type": "uint256"
        }
      ],
      "name": "getLenOfproduct",
      "outputs": [
        {
          "name": "_len",
          "type": "uint256"
        }
      ],
      "payable": false,
      "stateMutability": "view",
      "type": "function"
    },
    {
      "constant": false,
      "inputs": [
        {
          "name": "_productID",
          "type": "uint256"
        },
        {
          "name": "_productName",
          "type": "string"
        },
        {
          "name": "_quantity",
          "type": "uint256"
        },
        {
          "name": "_companyName",
          "type": "string"
        },
        {
          "name": "_MRP",
          "type": "uint256"
        },
        {
          "name": "_expireInMonths",
          "type": "uint256"
        },
        {
          "name": "_MFD",
          "type": "uint256"
        },
        {
          "name": "_EXP",
          "type": "uint256"
        },
        {
          "name": "_batch",
          "type": "uint256"
        }
      ],
      "name": "setProducts",
      "outputs": [],
      "payable": false,
      "stateMutability": "nonpayable",
      "type": "function"
    },
    {
      "constant": true,
      "inputs": [
        {
          "name": "_billID",
          "type": "uint256"
        }
      ],
      "name": "getLenOfbilled",
      "outputs": [
        {
          "name": "_len",
          "type": "uint256"
        }
      ],
      "payable": false,
      "stateMutability": "view",
      "type": "function"
    },
    {
      "constant": false,
      "inputs": [
        {
          "name": "_billID",
          "type": "uint256"
        },
        {
          "name": "_shopID",
          "type": "string"
        },
        {
          "name": "_purchaseDate",
          "type": "uint256"
        },
        {
          "name": "_productID",
          "type": "uint256"
        }
      ],
      "name": "setbill",
      "outputs": [],
      "payable": false,
      "stateMutability": "nonpayable",
      "type": "function"
    }
  ],
  "bytecode": "0x608060405262278d006001554260025534801561001b57600080fd5b50336000806101000a81548173ffffffffffffffffffffffffffffffffffffffff021916908373ffffffffffffffffffffffffffffffffffffffff16021790555061514d8061006b6000396000f3fe608060405260043610610149576000357c0100000000000000000000000000000000000000000000000000000000900463ffffffff168063143bd0b81461014e57806331059ff91461054057806331f86706146107005780633bfe11ae1461074f57806341291908146108f557806342f3588514610bd35780636db3d1ed14610d1d5780636ec3188d14610ffb578063702921f51461104a57806375d8ec45146110755780637af74978146110c45780637d2661ad146114b6578063a7045b6a14611582578063aabd4fd4146115db578063adf78f78146119cd578063af88f75c14611c0a578063b527fb7914611ee8578063b908863e146121c6578063c267ef46146122ac578063d18e81b3146122fb578063d6a9de5114612326578063e4018aab14612604578063ed03604d1461262f578063f188aa081461265a578063f7b15f5b14612938575b600080fd5b34801561015a57600080fd5b50610526600480360361012081101561017257600080fd5b81019080803590602001909291908035906020019064010000000081111561019957600080fd5b8201836020820111156101ab57600080fd5b803590602001918460018302840111640100000000831117156101cd57600080fd5b91908080601f016020809104026020016040519081016040528093929190818152602001838380828437600081840152601f19601f8201169050808301925050505050505091929192908035906020019064010000000081111561023057600080fd5b82018360208201111561024257600080fd5b8035906020019184600183028401116401000000008311171561026457600080fd5b91908080601f016020809104026020016040519081016040528093929190818152602001838380828437600081840152601f19601f82011690508083019250505050505050919291929080359060200190929190803590602001906401000000008111156102d157600080fd5b8201836020820111156102e357600080fd5b8035906020019184600183028401116401000000008311171561030557600080fd5b91908080601f016020809104026020016040519081016040528093929190818152602001838380828437600081840152601f19601f8201169050808301925050505050505091929192908035906020019064010000000081111561036857600080fd5b82018360208201111561037a57600080fd5b8035906020019184600183028401116401000000008311171561039c57600080fd5b91908080601f016020809104026020016040519081016040528093929190818152602001838380828437600081840152601f19601f820116905080830192505050505050509192919290803590602001906401000000008111156103ff57600080fd5b82018360208201111561041157600080fd5b8035906020019184600183028401116401000000008311171561043357600080fd5b91908080601f016020809104026020016040519081016040528093929190818152602001838380828437600081840152601f19601f82011690508083019250505050505050919291929080359060200190929190803590602001906401000000008111156104a057600080fd5b8201836020820111156104b257600080fd5b803590602001918460018302840111640100000000831117156104d457600080fd5b91908080601f016020809104026020016040519081016040528093929190818152602001838380828437600081840152601f19601f820116905080830192505050505050509192919290505050612987565b604051808215151515815260200191505060405180910390f35b34801561054c57600080fd5b506105836004803603604081101561056357600080fd5b810190808035906020019092919080359060200190929190505050612b04565b604051808a815260200180602001898152602001888152602001806020018060200187815260200186815260200185815260200184810384528c818151815260200191508051906020019080838360005b838110156105ef5780820151818401526020810190506105d4565b50505050905090810190601f16801561061c5780820380516001836020036101000a031916815260200191505b50848103835289818151815260200191508051906020019080838360005b8381101561065557808201518184015260208101905061063a565b50505050905090810190601f1680156106825780820380516001836020036101000a031916815260200191505b50848103825288818151815260200191508051906020019080838360005b838110156106bb5780820151818401526020810190506106a0565b50505050905090810190601f1680156106e85780820380516001836020036101000a031916815260200191505b509c5050505050505050505050505060405180910390f35b34801561070c57600080fd5b506107396004803603602081101561072357600080fd5b8101908080359060200190929190505050612d36565b6040518082815260200191505060405180910390f35b34801561075b57600080fd5b506108f3600480360361012081101561077357600080fd5b81019080803590602001909291908035906020019064010000000081111561079a57600080fd5b8201836020820111156107ac57600080fd5b803590602001918460018302840111640100000000831117156107ce57600080fd5b91908080601f016020809104026020016040519081016040528093929190818152602001838380828437600081840152601f19601f820116905080830192505050505050509192919290803590602001909291908035906020019064010000000081111561083b57600080fd5b82018360208201111561084d57600080fd5b8035906020019184600183028401116401000000008311171561086f57600080fd5b91908080601f016020809104026020016040519081016040528093929190818152602001838380828437600081840152601f19601f8201169050808301925050505050505091929192908035906020019092919080359060200190929190803590602001909291908035906020019092919080359060200190929190505050612d56565b005b34801561090157600080fd5b5061092e6004803603602081101561091857600080fd5b8101908080359060200190929190505050612f9b565b6040518080602001806020018981526020018060200180602001806020018881526020018060200187810387528f818151815260200191508051906020019080838360005b8381101561098e578082015181840152602081019050610973565b50505050905090810190601f1680156109bb5780820380516001836020036101000a031916815260200191505b5087810386528e818151815260200191508051906020019080838360005b838110156109f45780820151818401526020810190506109d9565b50505050905090810190601f168015610a215780820380516001836020036101000a031916815260200191505b5087810385528c818151815260200191508051906020019080838360005b83811015610a5a578082015181840152602081019050610a3f565b50505050905090810190601f168015610a875780820380516001836020036101000a031916815260200191505b5087810384528b818151815260200191508051906020019080838360005b83811015610ac0578082015181840152602081019050610aa5565b50505050905090810190601f168015610aed5780820380516001836020036101000a031916815260200191505b5087810383528a818151815260200191508051906020019080838360005b83811015610b26578082015181840152602081019050610b0b565b50505050905090810190601f168015610b535780820380516001836020036101000a031916815260200191505b50878103825288818151815260200191508051906020019080838360005b83811015610b8c578082015181840152602081019050610b71565b50505050905090810190601f168015610bb95780820380516001836020036101000a031916815260200191505b509e50505050505050505050505050505060405180910390f35b348015610bdf57600080fd5b50610c0c60048036036020811015610bf657600080fd5b8101908080359060200190929190505050613373565b60405180806020018981526020018060200188815260200187815260200186815260200185815260200184815260200183810383528b818151815260200191508051906020019080838360005b83811015610c74578082015181840152602081019050610c59565b50505050905090810190601f168015610ca15780820380516001836020036101000a031916815260200191505b50838103825289818151815260200191508051906020019080838360005b83811015610cda578082015181840152602081019050610cbf565b50505050905090810190601f168015610d075780820380516001836020036101000a031916815260200191505b509a505050505050505050505060405180910390f35b348015610d2957600080fd5b50610d5660048036036020811015610d4057600080fd5b81019080803590602001909291905050506134eb565b6040518080602001806020018981526020018060200180602001806020018881526020018060200187810387528f818151815260200191508051906020019080838360005b83811015610db6578082015181840152602081019050610d9b565b50505050905090810190601f168015610de35780820380516001836020036101000a031916815260200191505b5087810386528e818151815260200191508051906020019080838360005b83811015610e1c578082015181840152602081019050610e01565b50505050905090810190601f168015610e495780820380516001836020036101000a031916815260200191505b5087810385528c818151815260200191508051906020019080838360005b83811015610e82578082015181840152602081019050610e67565b50505050905090810190601f168015610eaf5780820380516001836020036101000a031916815260200191505b5087810384528b818151815260200191508051906020019080838360005b83811015610ee8578082015181840152602081019050610ecd565b50505050905090810190601f168015610f155780820380516001836020036101000a031916815260200191505b5087810383528a818151815260200191508051906020019080838360005b83811015610f4e578082015181840152602081019050610f33565b50505050905090810190601f168015610f7b5780820380516001836020036101000a031916815260200191505b50878103825288818151815260200191508051906020019080838360005b83811015610fb4578082015181840152602081019050610f99565b50505050905090810190601f168015610fe15780820380516001836020036101000a031916815260200191505b509e50505050505050505050505050505060405180910390f35b34801561100757600080fd5b506110346004803603602081101561101e57600080fd5b81019080803590602001909291905050506138c3565b6040518082815260200191505060405180910390f35b34801561105657600080fd5b5061105f6138db565b6040518082815260200191505060405180910390f35b34801561108157600080fd5b506110ae6004803603602081101561109857600080fd5b81019080803590602001909291905050506138e1565b6040518082815260200191505060405180910390f35b3480156110d057600080fd5b5061149c60048036036101208110156110e857600080fd5b81019080803590602001909291908035906020019064010000000081111561110f57600080fd5b82018360208201111561112157600080fd5b8035906020019184600183028401116401000000008311171561114357600080fd5b91908080601f016020809104026020016040519081016040528093929190818152602001838380828437600081840152601f19601f820116905080830192505050505050509192919290803590602001906401000000008111156111a657600080fd5b8201836020820111156111b857600080fd5b803590602001918460018302840111640100000000831117156111da57600080fd5b91908080601f016020809104026020016040519081016040528093929190818152602001838380828437600081840152601f19601f820116905080830192505050505050509192919290803590602001909291908035906020019064010000000081111561124757600080fd5b82018360208201111561125957600080fd5b8035906020019184600183028401116401000000008311171561127b57600080fd5b91908080601f016020809104026020016040519081016040528093929190818152602001838380828437600081840152601f19601f820116905080830192505050505050509192919290803590602001906401000000008111156112de57600080fd5b8201836020820111156112f057600080fd5b8035906020019184600183028401116401000000008311171561131257600080fd5b91908080601f016020809104026020016040519081016040528093929190818152602001838380828437600081840152601f19601f8201169050808301925050505050505091929192908035906020019064010000000081111561137557600080fd5b82018360208201111561138757600080fd5b803590602001918460018302840111640100000000831117156113a957600080fd5b91908080601f016020809104026020016040519081016040528093929190818152602001838380828437600081840152601f19601f820116905080830192505050505050509192919290803590602001909291908035906020019064010000000081111561141657600080fd5b82018360208201111561142857600080fd5b8035906020019184600183028401116401000000008311171561144a57600080fd5b91908080601f016020809104026020016040519081016040528093929190818152602001838380828437600081840152601f19601f820116905080830192505050505050509192919290505050613901565b604051808215151515815260200191505060405180910390f35b3480156114c257600080fd5b506114f9600480360360408110156114d957600080fd5b810190808035906020019092919080359060200190929190505050613a7e565b6040518080602001848152602001838152602001828103825285818151815260200191508051906020019080838360005b8381101561154557808201518184015260208101905061152a565b50505050905090810190601f1680156115725780820380516001836020036101000a031916815260200191505b5094505050505060405180910390f35b34801561158e57600080fd5b506115c5600480360360408110156115a557600080fd5b810190808035906020019092919080359060200190929190505050613b5c565b6040518082815260200191505060405180910390f35b3480156115e757600080fd5b506119b360048036036101208110156115ff57600080fd5b81019080803590602001909291908035906020019064010000000081111561162657600080fd5b82018360208201111561163857600080fd5b8035906020019184600183028401116401000000008311171561165a57600080fd5b91908080601f016020809104026020016040519081016040528093929190818152602001838380828437600081840152601f19601f820116905080830192505050505050509192919290803590602001906401000000008111156116bd57600080fd5b8201836020820111156116cf57600080fd5b803590602001918460018302840111640100000000831117156116f157600080fd5b91908080601f016020809104026020016040519081016040528093929190818152602001838380828437600081840152601f19601f820116905080830192505050505050509192919290803590602001909291908035906020019064010000000081111561175e57600080fd5b82018360208201111561177057600080fd5b8035906020019184600183028401116401000000008311171561179257600080fd5b91908080601f016020809104026020016040519081016040528093929190818152602001838380828437600081840152601f19601f820116905080830192505050505050509192919290803590602001906401000000008111156117f557600080fd5b82018360208201111561180757600080fd5b8035906020019184600183028401116401000000008311171561182957600080fd5b91908080601f016020809104026020016040519081016040528093929190818152602001838380828437600081840152601f19601f8201169050808301925050505050505091929192908035906020019064010000000081111561188c57600080fd5b82018360208201111561189e57600080fd5b803590602001918460018302840111640100000000831117156118c057600080fd5b91908080601f016020809104026020016040519081016040528093929190818152602001838380828437600081840152601f19601f820116905080830192505050505050509192919290803590602001909291908035906020019064010000000081111561192d57600080fd5b82018360208201111561193f57600080fd5b8035906020019184600183028401116401000000008311171561196157600080fd5b91908080601f016020809104026020016040519081016040528093929190818152602001838380828437600081840152601f19601f820116905080830192505050505050509192919290505050613b8c565b604051808215151515815260200191505060405180910390f35b3480156119d957600080fd5b50611c0860048036036101408110156119f157600080fd5b81019080803590602001909291908035906020019092919080359060200190640100000000811115611a2257600080fd5b820183602082011115611a3457600080fd5b80359060200191846001830284011164010000000083111715611a5657600080fd5b91908080601f016020809104026020016040519081016040528093929190818152602001838380828437600081840152601f19601f820116905080830192505050505050509192919290803590602001909291908035906020019092919080359060200190640100000000811115611acd57600080fd5b820183602082011115611adf57600080fd5b80359060200191846001830284011164010000000083111715611b0157600080fd5b91908080601f016020809104026020016040519081016040528093929190818152602001838380828437600081840152601f19601f82011690508083019250505050505050919291929080359060200190640100000000811115611b6457600080fd5b820183602082011115611b7657600080fd5b80359060200191846001830284011164010000000083111715611b9857600080fd5b91908080601f016020809104026020016040519081016040528093929190818152602001838380828437600081840152601f19601f820116905080830192505050505050509192919290803590602001909291908035906020019092919080359060200190929190505050613d09565b005b348015611c1657600080fd5b50611c4360048036036020811015611c2d57600080fd5b8101908080359060200190929190505050613e3a565b6040518080602001806020018981526020018060200180602001806020018881526020018060200187810387528f818151815260200191508051906020019080838360005b83811015611ca3578082015181840152602081019050611c88565b50505050905090810190601f168015611cd05780820380516001836020036101000a031916815260200191505b5087810386528e818151815260200191508051906020019080838360005b83811015611d09578082015181840152602081019050611cee565b50505050905090810190601f168015611d365780820380516001836020036101000a031916815260200191505b5087810385528c818151815260200191508051906020019080838360005b83811015611d6f578082015181840152602081019050611d54565b50505050905090810190601f168015611d9c5780820380516001836020036101000a031916815260200191505b5087810384528b818151815260200191508051906020019080838360005b83811015611dd5578082015181840152602081019050611dba565b50505050905090810190601f168015611e025780820380516001836020036101000a031916815260200191505b5087810383528a818151815260200191508051906020019080838360005b83811015611e3b578082015181840152602081019050611e20565b50505050905090810190601f168015611e685780820380516001836020036101000a031916815260200191505b50878103825288818151815260200191508051906020019080838360005b83811015611ea1578082015181840152602081019050611e86565b50505050905090810190601f168015611ece5780820380516001836020036101000a031916815260200191505b509e50505050505050505050505050505060405180910390f35b348015611ef457600080fd5b50611f2160048036036020811015611f0b57600080fd5b8101908080359060200190929190505050614212565b6040518080602001806020018981526020018060200180602001806020018881526020018060200187810387528f818151815260200191508051906020019080838360005b83811015611f81578082015181840152602081019050611f66565b50505050905090810190601f168015611fae5780820380516001836020036101000a031916815260200191505b5087810386528e818151815260200191508051906020019080838360005b83811015611fe7578082015181840152602081019050611fcc565b50505050905090810190601f1680156120145780820380516001836020036101000a031916815260200191505b5087810385528c818151815260200191508051906020019080838360005b8381101561204d578082015181840152602081019050612032565b50505050905090810190601f16801561207a5780820380516001836020036101000a031916815260200191505b5087810384528b818151815260200191508051906020019080838360005b838110156120b3578082015181840152602081019050612098565b50505050905090810190601f1680156120e05780820380516001836020036101000a031916815260200191505b5087810383528a818151815260200191508051906020019080838360005b838110156121195780820151818401526020810190506120fe565b50505050905090810190601f1680156121465780820380516001836020036101000a031916815260200191505b50878103825288818151815260200191508051906020019080838360005b8381101561217f578082015181840152602081019050612164565b50505050905090810190601f1680156121ac5780820380516001836020036101000a031916815260200191505b509e50505050505050505050505050505060405180910390f35b3480156121d257600080fd5b506122aa600480360360808110156121e957600080fd5b81019080803590602001909291908035906020019064010000000081111561221057600080fd5b82018360208201111561222257600080fd5b8035906020019184600183028401116401000000008311171561224457600080fd5b91908080601f016020809104026020016040519081016040528093929190818152602001838380828437600081840152601f19601f8201169050808301925050505050505091929192908035906020019092919080359060200190929190505050614683565b005b3480156122b857600080fd5b506122e5600480360360208110156122cf57600080fd5b8101908080359060200190929190505050614750565b6040518082815260200191505060405180910390f35b34801561230757600080fd5b50612310614768565b6040518082815260200191505060405180910390f35b34801561233257600080fd5b5061235f6004803603602081101561234957600080fd5b810190808035906020019092919050505061476e565b6040518080602001806020018981526020018060200180602001806020018881526020018060200187810387528f818151815260200191508051906020019080838360005b838110156123bf5780820151818401526020810190506123a4565b50505050905090810190601f1680156123ec5780820380516001836020036101000a031916815260200191505b5087810386528e818151815260200191508051906020019080838360005b8381101561242557808201518184015260208101905061240a565b50505050905090810190601f1680156124525780820380516001836020036101000a031916815260200191505b5087810385528c818151815260200191508051906020019080838360005b8381101561248b578082015181840152602081019050612470565b50505050905090810190601f1680156124b85780820380516001836020036101000a031916815260200191505b5087810384528b818151815260200191508051906020019080838360005b838110156124f15780820151818401526020810190506124d6565b50505050905090810190601f16801561251e5780820380516001836020036101000a031916815260200191505b5087810383528a818151815260200191508051906020019080838360005b8381101561255757808201518184015260208101905061253c565b50505050905090810190601f1680156125845780820380516001836020036101000a031916815260200191505b50878103825288818151815260200191508051906020019080838360005b838110156125bd5780820151818401526020810190506125a2565b50505050905090810190601f1680156125ea5780820380516001836020036101000a031916815260200191505b509e50505050505050505050505050505060405180910390f35b34801561261057600080fd5b50612619614bdf565b6040518082815260200191505060405180910390f35b34801561263b57600080fd5b50612644614be5565b6040518082815260200191505060405180910390f35b34801561266657600080fd5b506126936004803603602081101561267d57600080fd5b8101908080359060200190929190505050614beb565b6040518080602001806020018981526020018060200180602001806020018881526020018060200187810387528f818151815260200191508051906020019080838360005b838110156126f35780820151818401526020810190506126d8565b50505050905090810190601f1680156127205780820380516001836020036101000a031916815260200191505b5087810386528e818151815260200191508051906020019080838360005b8381101561275957808201518184015260208101905061273e565b50505050905090810190601f1680156127865780820380516001836020036101000a031916815260200191505b5087810385528c818151815260200191508051906020019080838360005b838110156127bf5780820151818401526020810190506127a4565b50505050905090810190601f1680156127ec5780820380516001836020036101000a031916815260200191505b5087810384528b818151815260200191508051906020019080838360005b8381101561282557808201518184015260208101905061280a565b50505050905090810190601f1680156128525780820380516001836020036101000a031916815260200191505b5087810383528a818151815260200191508051906020019080838360005b8381101561288b578082015181840152602081019050612870565b50505050905090810190601f1680156128b85780820380516001836020036101000a031916815260200191505b50878103825288818151815260200191508051906020019080838360005b838110156128f15780820151818401526020810190506128d6565b50505050905090810190601f16801561291e5780820380516001836020036101000a031916815260200191505b509e50505050505050505050505050505060405180910390f35b34801561294457600080fd5b506129716004803603602081101561295b57600080fd5b810190808035906020019092919050505061505c565b6040518082815260200191505060405180910390f35b60008060009054906101000a900473ffffffffffffffffffffffffffffffffffffffff1673ffffffffffffffffffffffffffffffffffffffff163373ffffffffffffffffffffffffffffffffffffffff161415156129e457600080fd5b610100604051908101604052808a815260200189815260200188815260200187815260200186815260200185815260200184815260200183815250600760008c81526020019081526020016000206000820151816000019080519060200190612a4e92919061507c565b506020820151816001019080519060200190612a6b92919061507c565b50604082015181600201556060820151816003019080519060200190612a9292919061507c565b506080820151816004019080519060200190612aaf92919061507c565b5060a0820151816005019080519060200190612acc92919061507c565b5060c0820151816006015560e0820151816007019080519060200190612af392919061507c565b509050509998505050505050505050565b600860205281600052604060002081815481101515612b1f57fe5b906000526020600020906009020160009150915050806000015490806001018054600181600116156101000203166002900480601f016020809104026020016040519081016040528092919081815260200182805460018160011615610100020316600290048015612bd25780601f10612ba757610100808354040283529160200191612bd2565b820191906000526020600020905b815481529060010190602001808311612bb557829003601f168201915b505050505090806002015490806003015490806004018054600181600116156101000203166002900480601f016020809104026020016040519081016040528092919081815260200182805460018160011615610100020316600290048015612c7c5780601f10612c5157610100808354040283529160200191612c7c565b820191906000526020600020905b815481529060010190602001808311612c5f57829003601f168201915b505050505090806005018054600181600116156101000203166002900480601f016020809104026020016040519081016040528092919081815260200182805460018160011615610100020316600290048015612d1a5780601f10612cef57610100808354040283529160200191612d1a565b820191906000526020600020905b815481529060010190602001808311612cfd57829003601f168201915b5050505050908060060154908060070154908060080154905089565b6000600d6000838152602001908152602001600020805490509050919050565b80429350846001540294508442019250600860008381526020019081526020016000206000815481101515612d8757fe5b906000526020600020906009020160030154600b81905550600860008381526020019081526020016000206000815481101515612dc057fe5b906000526020600020906009020160080154600c81905550610100604051908101604052808a815260200189815260200188815260200187815260200186815260200185815260200184815260200183815250600960008c81526020019081526020016000206000820151816000019080519060200190612e4292919061507c565b50602082015181600101556040820151816002019080519060200190612e6992919061507c565b50606082015181600301556080820151816004015560a0820151816005015560c0820151816006015560e08201518160070155905050600a60008381526020019081526020016000208a908060018154018082558091505090600182039060005260206000200160009091929091909150555060016003600084815260200190815260200160002060008282540192505081905550600860008281526020019081526020016000206000815481101515612f1f57fe5b906000526020600020906009020160030154600360008381526020019081526020016000205411158015612f845750600860008281526020019081526020016000206000815481101515612f6f57fe5b90600052602060002090600902016008015442105b1515612f8f57600080fd5b50505050505050505050565b6006602052806000526040600020600091509050806000018054600181600116156101000203166002900480601f0160208091040260200160405190810160405280929190818152602001828054600181600116156101000203166002900480156130475780601f1061301c57610100808354040283529160200191613047565b820191906000526020600020905b81548152906001019060200180831161302a57829003601f168201915b505050505090806001018054600181600116156101000203166002900480601f0160208091040260200160405190810160405280929190818152602001828054600181600116156101000203166002900480156130e55780601f106130ba576101008083540402835291602001916130e5565b820191906000526020600020905b8154815290600101906020018083116130c857829003601f168201915b505050505090806002015490806003018054600181600116156101000203166002900480601f0160208091040260200160405190810160405280929190818152602001828054600181600116156101000203166002900480156131895780601f1061315e57610100808354040283529160200191613189565b820191906000526020600020905b81548152906001019060200180831161316c57829003601f168201915b505050505090806004018054600181600116156101000203166002900480601f0160208091040260200160405190810160405280929190818152602001828054600181600116156101000203166002900480156132275780601f106131fc57610100808354040283529160200191613227565b820191906000526020600020905b81548152906001019060200180831161320a57829003601f168201915b505050505090806005018054600181600116156101000203166002900480601f0160208091040260200160405190810160405280929190818152602001828054600181600116156101000203166002900480156132c55780601f1061329a576101008083540402835291602001916132c5565b820191906000526020600020905b8154815290600101906020018083116132a857829003601f168201915b505050505090806006015490806007018054600181600116156101000203166002900480601f0160208091040260200160405190810160405280929190818152602001828054600181600116156101000203166002900480156133695780601f1061333e57610100808354040283529160200191613369565b820191906000526020600020905b81548152906001019060200180831161334c57829003601f168201915b5050505050905088565b6009602052806000526040600020600091509050806000018054600181600116156101000203166002900480601f01602080910402602001604051908101604052809291908181526020018280546001816001161561010002031660029004801561341f5780601f106133f45761010080835404028352916020019161341f565b820191906000526020600020905b81548152906001019060200180831161340257829003601f168201915b505050505090806001015490806002018054600181600116156101000203166002900480601f0160208091040260200160405190810160405280929190818152602001828054600181600116156101000203166002900480156134c35780601f10613498576101008083540402835291602001916134c3565b820191906000526020600020905b8154815290600101906020018083116134a657829003601f168201915b5050505050908060030154908060040154908060050154908060060154908060070154905088565b6005602052806000526040600020600091509050806000018054600181600116156101000203166002900480601f0160208091040260200160405190810160405280929190818152602001828054600181600116156101000203166002900480156135975780601f1061356c57610100808354040283529160200191613597565b820191906000526020600020905b81548152906001019060200180831161357a57829003601f168201915b505050505090806001018054600181600116156101000203166002900480601f0160208091040260200160405190810160405280929190818152602001828054600181600116156101000203166002900480156136355780601f1061360a57610100808354040283529160200191613635565b820191906000526020600020905b81548152906001019060200180831161361857829003601f168201915b505050505090806002015490806003018054600181600116156101000203166002900480601f0160208091040260200160405190810160405280929190818152602001828054600181600116156101000203166002900480156136d95780601f106136ae576101008083540402835291602001916136d9565b820191906000526020600020905b8154815290600101906020018083116136bc57829003601f168201915b505050505090806004018054600181600116156101000203166002900480601f0160208091040260200160405190810160405280929190818152602001828054600181600116156101000203166002900480156137775780601f1061374c57610100808354040283529160200191613777565b820191906000526020600020905b81548152906001019060200180831161375a57829003601f168201915b505050505090806005018054600181600116156101000203166002900480601f0160208091040260200160405190810160405280929190818152602001828054600181600116156101000203166002900480156138155780601f106137ea57610100808354040283529160200191613815565b820191906000526020600020905b8154815290600101906020018083116137f857829003601f168201915b505050505090806006015490806007018054600181600116156101000203166002900480601f0160208091040260200160405190810160405280929190818152602001828054600181600116156101000203166002900480156138b95780601f1061388e576101008083540402835291602001916138b9565b820191906000526020600020905b81548152906001019060200180831161389c57829003601f168201915b5050505050905088565b60046020528060005260406000206000915090505481565b60015481565b600060086000838152602001908152602001600020805490509050919050565b60008060009054906101000a900473ffffffffffffffffffffffffffffffffffffffff1673ffffffffffffffffffffffffffffffffffffffff163373ffffffffffffffffffffffffffffffffffffffff1614151561395e57600080fd5b610100604051908101604052808a815260200189815260200188815260200187815260200186815260200185815260200184815260200183815250600660008c815260200190815260200160002060008201518160000190805190602001906139c892919061507c565b5060208201518160010190805190602001906139e592919061507c565b50604082015181600201556060820151816003019080519060200190613a0c92919061507c565b506080820151816004019080519060200190613a2992919061507c565b5060a0820151816005019080519060200190613a4692919061507c565b5060c0820151816006015560e0820151816007019080519060200190613a6d92919061507c565b509050509998505050505050505050565b600d60205281600052604060002081815481101515613a9957fe5b906000526020600020906003020160009150915050806000018054600181600116156101000203166002900480601f016020809104026020016040519081016040528092919081815260200182805460018160011615610100020316600290048015613b465780601f10613b1b57610100808354040283529160200191613b46565b820191906000526020600020905b815481529060010190602001808311613b2957829003601f168201915b5050505050908060010154908060020154905083565b600a60205281600052604060002081815481101515613b7757fe5b90600052602060002001600091509150505481565b60008060009054906101000a900473ffffffffffffffffffffffffffffffffffffffff1673ffffffffffffffffffffffffffffffffffffffff163373ffffffffffffffffffffffffffffffffffffffff16141515613be957600080fd5b610100604051908101604052808a815260200189815260200188815260200187815260200186815260200185815260200184815260200183815250600560008c81526020019081526020016000206000820151816000019080519060200190613c5392919061507c565b506020820151816001019080519060200190613c7092919061507c565b50604082015181600201556060820151816003019080519060200190613c9792919061507c565b506080820151816004019080519060200190613cb492919061507c565b5060a0820151816005019080519060200190613cd192919061507c565b5060c0820151816006015560e0820151816007019080519060200190613cf892919061507c565b509050509998505050505050505050565b429250816001540291508142019050600860008b8152602001908152602001600020610120604051908101604052808b81526020018a81526020018981526020018881526020018781526020018681526020018581526020018481526020018381525090806001815401808255809150509060018203906000526020600020906009020160009091929091909150600082015181600001556020820151816001019080519060200190613dbd92919061507c565b5060408201518160020155606082015181600301556080820151816004019080519060200190613dee92919061507c565b5060a0820151816005019080519060200190613e0b92919061507c565b5060c0820151816006015560e08201518160070155610100820151816008015550505050505050505050505050565b6007602052806000526040600020600091509050806000018054600181600116156101000203166002900480601f016020809104026020016040519081016040528092919081815260200182805460018160011615610100020316600290048015613ee65780601f10613ebb57610100808354040283529160200191613ee6565b820191906000526020600020905b815481529060010190602001808311613ec957829003601f168201915b505050505090806001018054600181600116156101000203166002900480601f016020809104026020016040519081016040528092919081815260200182805460018160011615610100020316600290048015613f845780601f10613f5957610100808354040283529160200191613f84565b820191906000526020600020905b815481529060010190602001808311613f6757829003601f168201915b505050505090806002015490806003018054600181600116156101000203166002900480601f0160208091040260200160405190810160405280929190818152602001828054600181600116156101000203166002900480156140285780601f10613ffd57610100808354040283529160200191614028565b820191906000526020600020905b81548152906001019060200180831161400b57829003601f168201915b505050505090806004018054600181600116156101000203166002900480601f0160208091040260200160405190810160405280929190818152602001828054600181600116156101000203166002900480156140c65780601f1061409b576101008083540402835291602001916140c6565b820191906000526020600020905b8154815290600101906020018083116140a957829003601f168201915b505050505090806005018054600181600116156101000203166002900480601f0160208091040260200160405190810160405280929190818152602001828054600181600116156101000203166002900480156141645780601f1061413957610100808354040283529160200191614164565b820191906000526020600020905b81548152906001019060200180831161414757829003601f168201915b505050505090806006015490806007018054600181600116156101000203166002900480601f0160208091040260200160405190810160405280929190818152602001828054600181600116156101000203166002900480156142085780601f106141dd57610100808354040283529160200191614208565b820191906000526020600020905b8154815290600101906020018083116141eb57829003601f168201915b5050505050905088565b6060806000606080606060006060600660008a81526020019081526020016000206000018054600181600116156101000203166002900480601f0160208091040260200160405190810160405280929190818152602001828054600181600116156101000203166002900480156142ca5780601f1061429f576101008083540402835291602001916142ca565b820191906000526020600020905b8154815290600101906020018083116142ad57829003601f168201915b50505050509750600660008a81526020019081526020016000206001018054600181600116156101000203166002900480601f01602080910402602001604051908101604052809291908181526020018280546001816001161561010002031660029004801561437b5780601f106143505761010080835404028352916020019161437b565b820191906000526020600020905b81548152906001019060200180831161435e57829003601f168201915b50505050509650600660008a8152602001908152602001600020600201549550600660008a81526020019081526020016000206003018054600181600116156101000203166002900480601f0160208091040260200160405190810160405280929190818152602001828054600181600116156101000203166002900480156144455780601f1061441a57610100808354040283529160200191614445565b820191906000526020600020905b81548152906001019060200180831161442857829003601f168201915b50505050509450600660008a81526020019081526020016000206004018054600181600116156101000203166002900480601f0160208091040260200160405190810160405280929190818152602001828054600181600116156101000203166002900480156144f65780601f106144cb576101008083540402835291602001916144f6565b820191906000526020600020905b8154815290600101906020018083116144d957829003601f168201915b50505050509350600660008a81526020019081526020016000206005018054600181600116156101000203166002900480601f0160208091040260200160405190810160405280929190818152602001828054600181600116156101000203166002900480156145a75780601f1061457c576101008083540402835291602001916145a7565b820191906000526020600020905b81548152906001019060200180831161458a57829003601f168201915b50505050509250600660008a8152602001908152602001600020600601549150600660008a81526020019081526020016000206007018054600181600116156101000203166002900480601f0160208091040260200160405190810160405280929190818152602001828054600181600116156101000203166002900480156146715780601f1061464657610100808354040283529160200191614671565b820191906000526020600020905b81548152906001019060200180831161465457829003601f168201915b50505050509050919395975091939597565b42915060006004600083815260200190815260200160002054141561474a57600d60008581526020019081526020016000206060604051908101604052808581526020018481526020018381525090806001815401808255809150509060018203906000526020600020906003020160009091929091909150600082015181600001908051906020019061471892919061507c565b506020820151816001015560408201518160020155505050600160046000838152602001908152602001600020819055505b50505050565b60036020528060005260406000206000915090505481565b60025481565b6060806000606080606060006060600760008a81526020019081526020016000206000018054600181600116156101000203166002900480601f0160208091040260200160405190810160405280929190818152602001828054600181600116156101000203166002900480156148265780601f106147fb57610100808354040283529160200191614826565b820191906000526020600020905b81548152906001019060200180831161480957829003601f168201915b50505050509750600760008a81526020019081526020016000206001018054600181600116156101000203166002900480601f0160208091040260200160405190810160405280929190818152602001828054600181600116156101000203166002900480156148d75780601f106148ac576101008083540402835291602001916148d7565b820191906000526020600020905b8154815290600101906020018083116148ba57829003601f168201915b50505050509650600760008a8152602001908152602001600020600201549550600760008a81526020019081526020016000206003018054600181600116156101000203166002900480601f0160208091040260200160405190810160405280929190818152602001828054600181600116156101000203166002900480156149a15780601f10614976576101008083540402835291602001916149a1565b820191906000526020600020905b81548152906001019060200180831161498457829003601f168201915b50505050509450600760008a81526020019081526020016000206004018054600181600116156101000203166002900480601f016020809104026020016040519081016040528092919081815260200182805460018160011615610100020316600290048015614a525780601f10614a2757610100808354040283529160200191614a52565b820191906000526020600020905b815481529060010190602001808311614a3557829003601f168201915b50505050509350600760008a81526020019081526020016000206005018054600181600116156101000203166002900480601f016020809104026020016040519081016040528092919081815260200182805460018160011615610100020316600290048015614b035780601f10614ad857610100808354040283529160200191614b03565b820191906000526020600020905b815481529060010190602001808311614ae657829003601f168201915b50505050509250600760008a8152602001908152602001600020600601549150600760008a81526020019081526020016000206007018054600181600116156101000203166002900480601f016020809104026020016040519081016040528092919081815260200182805460018160011615610100020316600290048015614bcd5780601f10614ba257610100808354040283529160200191614bcd565b820191906000526020600020905b815481529060010190602001808311614bb057829003601f168201915b50505050509050919395975091939597565b600b5481565b600c5481565b6060806000606080606060006060600560008a81526020019081526020016000206000018054600181600116156101000203166002900480601f016020809104026020016040519081016040528092919081815260200182805460018160011615610100020316600290048015614ca35780601f10614c7857610100808354040283529160200191614ca3565b820191906000526020600020905b815481529060010190602001808311614c8657829003601f168201915b50505050509750600560008a81526020019081526020016000206001018054600181600116156101000203166002900480601f016020809104026020016040519081016040528092919081815260200182805460018160011615610100020316600290048015614d545780601f10614d2957610100808354040283529160200191614d54565b820191906000526020600020905b815481529060010190602001808311614d3757829003601f168201915b50505050509650600560008a8152602001908152602001600020600201549550600560008a81526020019081526020016000206003018054600181600116156101000203166002900480601f016020809104026020016040519081016040528092919081815260200182805460018160011615610100020316600290048015614e1e5780601f10614df357610100808354040283529160200191614e1e565b820191906000526020600020905b815481529060010190602001808311614e0157829003601f168201915b50505050509450600560008a81526020019081526020016000206004018054600181600116156101000203166002900480601f016020809104026020016040519081016040528092919081815260200182805460018160011615610100020316600290048015614ecf5780601f10614ea457610100808354040283529160200191614ecf565b820191906000526020600020905b815481529060010190602001808311614eb257829003601f168201915b50505050509350600560008a81526020019081526020016000206005018054600181600116156101000203166002900480601f016020809104026020016040519081016040528092919081815260200182805460018160011615610100020316600290048015614f805780601f10614f5557610100808354040283529160200191614f80565b820191906000526020600020905b815481529060010190602001808311614f6357829003601f168201915b50505050509250600560008a8152602001908152602001600020600601549150600560008a81526020019081526020016000206007018054600181600116156101000203166002900480601f01602080910402602001604051908101604052809291908181526020018280546001816001161561010002031660029004801561504a5780601f1061501f5761010080835404028352916020019161504a565b820191906000526020600020905b81548152906001019060200180831161502d57829003601f168201915b50505050509050919395975091939597565b6000600a6000838152602001908152602001600020805490509050919050565b828054600181600116156101000203166002900490600052602060002090601f016020900481019282601f106150bd57805160ff19168380011785556150eb565b828001600101855582156150eb579182015b828111156150ea5782518255916020019190600101906150cf565b5b5090506150f891906150fc565b5090565b61511e91905b8082111561511a576000816000905550600101615102565b5090565b9056fea165627a7a723058208d8c1b2c2e6d02ee01c98c0ce3d91a1aa389e77ec25cdf6d3ea2861747579d680029",
  "source": "pragma solidity ^0.5.0;\n\n\ncontract FVS {\n\n  //declaring state variables\n  address admin;\n  uint public  month = 720 hours;\n  uint public currentTime = now;\n  //creating contructors\n  constructor() public {\n    admin = msg.sender;\n  }\n  //creating modifier for owner only\n  modifier only_owner(){\n        require(msg.sender == admin);\n        _;\n    }\n    \n    \n    \n  //create mapping for storing the count of each batch id\n  mapping(uint => uint) public NOPcount;\n\n  //create mapping for soldorNot\n  mapping(uint => uint) public soldORnot; \n\n  //creating structure to add the details of raw material dealers\n  struct rawDealer{\n    string companyName;\n    string email;\n    uint phone;\n    string companyAddress;\n    string state;\n    string place;\n    uint pincode;\n    string licenceNo;\n  }\n  //create mapping for the raw material dealers using company id\n  mapping(uint => rawDealer) public rawDealerDetail;\n\n  //function to insert the raw material dealers details\n  function setRawdealer(uint _companyID, string memory _companyName, string memory _email, uint _phone, string memory _companyAddress, string memory _state, string memory _place, uint _pincode, string memory _licenceNo) public only_owner returns (bool) {\n    rawDealerDetail[_companyID] = rawDealer(_companyName, _email, _phone, _companyAddress, _state, _place, _pincode, _licenceNo);\n  }\n\n  //function to view the raw material dealers details\n  function getRawdealer(uint _companyID) public view returns (string memory _companyName, string memory _email, uint _phone, string memory _companyAddress, string memory _state, string memory _place, uint _pincode, string memory _licenceNo){\n\n    _companyName = rawDealerDetail[_companyID].companyName;\n    _email = rawDealerDetail[_companyID].email;\n    _phone = rawDealerDetail[_companyID].phone;\n    _companyAddress = rawDealerDetail[_companyID].companyAddress;\n    _state = rawDealerDetail[_companyID].state;\n    _place = rawDealerDetail[_companyID].place;\n    _pincode = rawDealerDetail[_companyID].pincode;\n    _licenceNo = rawDealerDetail[_companyID].licenceNo;\n\n  }\n\n  //creating strcuture for the manufaturer\n  struct manufacturer{\n\n    string companyName;\n    string email;\n    uint phone;\n    string companyAddress;\n    string state;\n    string place;\n    uint pincode;\n    string licenceNo;\n\n  }\n\n  //creating mapping for manufacturer\n  mapping(uint => manufacturer) public manufacturerDetail;\n\n  //function to add manufacturer details\n  function setManufacturer(uint _companyID, string memory _companyName, string memory _email, uint _phone, string memory _companyAddress, string memory _state, string memory _place, uint _pincode, string memory _licenceNo) public only_owner returns (bool){\n   manufacturerDetail[_companyID] = manufacturer(_companyName, _email, _phone, _companyAddress, _state, _place, _pincode, _licenceNo);\n\n  }\n\n  //function to view the manufacturer details\n  function getManufacturer(uint _companyID) public view returns (string memory _companyName, string memory _email, uint _phone, string memory _companyAddress, string memory _state, string memory _place, uint _pincode, string memory _licenceNo){\n    _companyName = manufacturerDetail[_companyID].companyName;\n    _email = manufacturerDetail[_companyID].email;\n    _phone = manufacturerDetail[_companyID].phone;\n    _companyAddress = manufacturerDetail[_companyID].companyAddress;\n    _state = manufacturerDetail[_companyID].state;\n    _place = manufacturerDetail[_companyID].place;\n    _pincode = manufacturerDetail[_companyID].pincode;\n    _licenceNo = manufacturerDetail[_companyID].licenceNo;\n  }\n\n  //creating structure for seller\n  struct seller{\n    string sellerName;\n    string email;\n    uint phone;\n    string sellerAddress;\n    string state;\n    string place;\n    uint pincode;\n    string licenceNo;\n\n  }\n  //creating mapping for seller\n  mapping(uint => seller) public sellerDetail;\n\n  //function to add the seller\n  function setSeller(uint _sellerID, string memory _sellerName, string memory _email, uint _phone, string memory _sellerAddress, string memory _state, string memory _place, uint _pincode, string memory _licenceNo) public only_owner returns (bool) {\n    sellerDetail[_sellerID] = seller(_sellerName, _email, _phone, _sellerAddress, _state, _place, _pincode, _licenceNo);\n  }\n\n  //function to view the seller details\n  function getSeller(uint _sellerID) public view returns (string memory _sellerName, string memory _email, uint _phone, string memory _sellerAddress, string memory _state, string memory _place, uint _pincode, string memory _licenceNo){\n\n   _sellerName = sellerDetail[_sellerID].sellerName;\n    _email = sellerDetail[_sellerID].email;\n    _phone = sellerDetail[_sellerID].phone;\n    _sellerAddress = sellerDetail[_sellerID].sellerAddress;\n    _state = sellerDetail[_sellerID].state;\n    _place = sellerDetail[_sellerID].place;\n    _pincode = sellerDetail[_sellerID].pincode;\n    _licenceNo = sellerDetail[_sellerID].licenceNo; \n  }\n\n  //structure to add the raw material details\n  struct rawMaterial{\n    uint materialID;\n    string materialName;\n    uint quantity;\n    uint numberOfProducts;\n    string productName;\n    string companyName;\n    uint purchaseDate;\n    uint validtill;\n    uint expirayDate;\n  }\n\n  //array mapping to add the rawmaterial in a batchid\n  mapping(uint => rawMaterial[]) public rawMaterialsDetail;\n\n  //function to add the raw materials to array\n  function setRawMaterial(uint _batch, uint _materialID, string memory _materialName, uint _quantity, uint _numberOfProducts, string memory _productName, string memory _companyName, uint _purchaseDate, uint _validtill, uint _expirayDate) public {\n        _purchaseDate = now;\n        _validtill = month * _validtill;\n        _expirayDate = now + _validtill;\n        rawMaterialsDetail[_batch].push(rawMaterial(_materialID, _materialName, _quantity, _numberOfProducts, _productName, _companyName, _purchaseDate, _validtill, _expirayDate));\n    }\n\n  //function to get the lenght of the array of a batch\n    function getLen(uint _batch) public view returns (uint _len) {\n        _len = rawMaterialsDetail[_batch].length;\n    }\n\n  //structure to add the products by the manufactrer\n  struct products{\n    string productName;\n    uint quantity;\n    string companyName;\n    uint MRP;\n    uint expireInMonths;\n    uint MFD;\n    uint EXP;\n    uint batch;\n  }\n\n  // array mapping to add the products\n    mapping(uint => products) public productDetail;\n    mapping(uint => uint[]) public batchOfproducts;\n    \n    // mapping(uint => mapping(uint => productDetail)) batchOfproducts;\n\n    \n    \n    // creating modifier for adding products\n    modifier adding_products(uint _batch){\n        _;\n        require (NOPcount[_batch] <= rawMaterialsDetail[_batch][0].numberOfProducts && now < rawMaterialsDetail[_batch][0].expirayDate);\n        \n        }\n    \n    uint public MAXcount;\n    uint public EXPdate;\n\n    //function to get the lenght of the array of a batchOfproducts\n    function getLenOfproduct(uint _batch) public view returns (uint _len) {\n        _len = batchOfproducts[_batch].length;\n    }\n\n  //function to add the products\n  function setProducts(uint _productID, string memory _productName, uint _quantity, string memory _companyName, uint _MRP, uint _expireInMonths, uint _MFD, uint _EXP, uint _batch) public adding_products(_batch){\n        _MFD = now;\n        _expireInMonths = month * _expireInMonths;\n        _EXP = now + _expireInMonths;\n        \n        MAXcount = rawMaterialsDetail[_batch][0].numberOfProducts;\n        EXPdate = rawMaterialsDetail[_batch][0].expirayDate;\n        //uint CRNTcount = NOPcount[_batch];\n        //require (CRNTcount <= MAXcount && _MFD < EXPdate);\n        //require (NOPcount[_batch] <= rawMaterialsDetail[_batch][0].numberOfProducts && now < rawMaterialsDetail[_batch][0].expirayDate);\n        \n        productDetail[_productID] = products(_productName, _quantity, _companyName, _MRP, _expireInMonths, _MFD, _EXP, _batch);\n        batchOfproducts[_batch].push(_productID);\n        \n        NOPcount[_batch] += 1;\n    }\n\n    //structure for the billing\n    struct billing{\n      string shopID;\n      uint purchaseDate;\n      uint productID;\n    }\n\n    //mapping of billing\n    mapping(uint => billing[]) public billed;\n\n    //function to get the lenght of the array of a billed\n    function getLenOfbilled(uint _billID) public view returns (uint _len) {\n        _len = billed[_billID].length;\n    }\n\n    //function to insert the billing details\n    function setbill(uint _billID, string memory _shopID, uint _purchaseDate, uint _productID) public{\n      _purchaseDate = now;\n      if(soldORnot[_productID] == 0){\n\n        billed[_billID].push(billing(_shopID, _purchaseDate, _productID));\n        soldORnot[_productID] = 1;\n      }\n    }\n}\n\n",
  "sourcePath": "/home/akshaymuralidharan/Documents/Desktop/CED/Truffle/KBA Project/FVS/contracts/FVS.sol",
  "compiler": {
    "name": "solc",
    "version": "0.5.0+commit.1d4f565a.Emscripten.clang"
  },
  "schemaVersion": "3.0.9",
  "updatedAt": "2019-05-29T10:47:17.065Z",
  "devdoc": {
    "methods": {}
  },
  "userdoc": {
    "methods": {}
  }
}