{
  "contractName": "FVS",
  "abi": [
    {
      "constant": true,
      "inputs": [
        {
          "name": "",
          "type": "uint256"
        },
        {
          "name": "",
          "type": "uint256"
        }
      ],
      "name": "rawMaterialsDetail",
      "outputs": [
        {
          "name": "materialID",
          "type": "uint256"
        },
        {
          "name": "materialName",
          "type": "string"
        },
        {
          "name": "quantity",
          "type": "uint256"
        },
        {
          "name": "numberOfProducts",
          "type": "uint256"
        },
        {
          "name": "productName",
          "type": "string"
        },
        {
          "name": "companyName",
          "type": "string"
        },
        {
          "name": "purchaseDate",
          "type": "uint256"
        },
        {
          "name": "validtill",
          "type": "uint256"
        },
        {
          "name": "expirayDate",
          "type": "uint256"
        }
      ],
      "payable": false,
      "stateMutability": "view",
      "type": "function"
    },
    {
      "constant": true,
      "inputs": [
        {
          "name": "",
          "type": "uint256"
        }
      ],
      "name": "manufacturerDetail",
      "outputs": [
        {
          "name": "companyName",
          "type": "string"
        },
        {
          "name": "email",
          "type": "string"
        },
        {
          "name": "phone",
          "type": "uint256"
        },
        {
          "name": "companyAddress",
          "type": "string"
        },
        {
          "name": "state",
          "type": "string"
        },
        {
          "name": "place",
          "type": "string"
        },
        {
          "name": "pincode",
          "type": "uint256"
        },
        {
          "name": "licenceNo",
          "type": "string"
        }
      ],
      "payable": false,
      "stateMutability": "view",
      "type": "function"
    },
    {
      "constant": true,
      "inputs": [
        {
          "name": "",
          "type": "uint256"
        }
      ],
      "name": "productDetail",
      "outputs": [
        {
          "name": "productName",
          "type": "string"
        },
        {
          "name": "quantity",
          "type": "uint256"
        },
        {
          "name": "companyName",
          "type": "string"
        },
        {
          "name": "MRP",
          "type": "uint256"
        },
        {
          "name": "expireInMonths",
          "type": "uint256"
        },
        {
          "name": "MFD",
          "type": "uint256"
        },
        {
          "name": "EXP",
          "type": "uint256"
        },
        {
          "name": "batch",
          "type": "uint256"
        }
      ],
      "payable": false,
      "stateMutability": "view",
      "type": "function"
    },
    {
      "constant": true,
      "inputs": [
        {
          "name": "",
          "type": "uint256"
        }
      ],
      "name": "rawDealerDetail",
      "outputs": [
        {
          "name": "companyName",
          "type": "string"
        },
        {
          "name": "email",
          "type": "string"
        },
        {
          "name": "phone",
          "type": "uint256"
        },
        {
          "name": "companyAddress",
          "type": "string"
        },
        {
          "name": "state",
          "type": "string"
        },
        {
          "name": "place",
          "type": "string"
        },
        {
          "name": "pincode",
          "type": "uint256"
        },
        {
          "name": "licenceNo",
          "type": "string"
        }
      ],
      "payable": false,
      "stateMutability": "view",
      "type": "function"
    },
    {
      "constant": true,
      "inputs": [
        {
          "name": "",
          "type": "uint256"
        }
      ],
      "name": "soldORnot",
      "outputs": [
        {
          "name": "",
          "type": "uint256"
        }
      ],
      "payable": false,
      "stateMutability": "view",
      "type": "function"
    },
    {
      "constant": true,
      "inputs": [],
      "name": "month",
      "outputs": [
        {
          "name": "",
          "type": "uint256"
        }
      ],
      "payable": false,
      "stateMutability": "view",
      "type": "function"
    },
    {
      "constant": true,
      "inputs": [
        {
          "name": "",
          "type": "uint256"
        },
        {
          "name": "",
          "type": "uint256"
        }
      ],
      "name": "billed",
      "outputs": [
        {
          "name": "shopID",
          "type": "string"
        },
        {
          "name": "purchaseDate",
          "type": "uint256"
        },
        {
          "name": "productID",
          "type": "uint256"
        }
      ],
      "payable": false,
      "stateMutability": "view",
      "type": "function"
    },
    {
      "constant": true,
      "inputs": [
        {
          "name": "",
          "type": "uint256"
        },
        {
          "name": "",
          "type": "uint256"
        }
      ],
      "name": "batchOfproducts",
      "outputs": [
        {
          "name": "",
          "type": "uint256"
        }
      ],
      "payable": false,
      "stateMutability": "view",
      "type": "function"
    },
    {
      "constant": true,
      "inputs": [
        {
          "name": "",
          "type": "uint256"
        }
      ],
      "name": "sellerDetail",
      "outputs": [
        {
          "name": "sellerName",
          "type": "string"
        },
        {
          "name": "email",
          "type": "string"
        },
        {
          "name": "phone",
          "type": "uint256"
        },
        {
          "name": "sellerAddress",
          "type": "string"
        },
        {
          "name": "state",
          "type": "string"
        },
        {
          "name": "place",
          "type": "string"
        },
        {
          "name": "pincode",
          "type": "uint256"
        },
        {
          "name": "licenceNo",
          "type": "string"
        }
      ],
      "payable": false,
      "stateMutability": "view",
      "type": "function"
    },
    {
      "constant": true,
      "inputs": [
        {
          "name": "",
          "type": "uint256"
        }
      ],
      "name": "NOPcount",
      "outputs": [
        {
          "name": "",
          "type": "uint256"
        }
      ],
      "payable": false,
      "stateMutability": "view",
      "type": "function"
    },
    {
      "constant": true,
      "inputs": [],
      "name": "currentTime",
      "outputs": [
        {
          "name": "",
          "type": "uint256"
        }
      ],
      "payable": false,
      "stateMutability": "view",
      "type": "function"
    },
    {
      "constant": true,
      "inputs": [],
      "name": "MAXcount",
      "outputs": [
        {
          "name": "",
          "type": "uint256"
        }
      ],
      "payable": false,
      "stateMutability": "view",
      "type": "function"
    },
    {
      "constant": true,
      "inputs": [],
      "name": "EXPdate",
      "outputs": [
        {
          "name": "",
          "type": "uint256"
        }
      ],
      "payable": false,
      "stateMutability": "view",
      "type": "function"
    },
    {
      "inputs": [],
      "payable": false,
      "stateMutability": "nonpayable",
      "type": "constructor"
    },
    {
      "constant": false,
      "inputs": [
        {
          "name": "_companyID",
          "type": "uint256"
        },
        {
          "name": "_companyName",
          "type": "string"
        },
        {
          "name": "_email",
          "type": "string"
        },
        {
          "name": "_phone",
          "type": "uint256"
        },
        {
          "name": "_companyAddress",
          "type": "string"
        },
        {
          "name": "_state",
          "type": "string"
        },
        {
          "name": "_place",
          "type": "string"
        },
        {
          "name": "_pincode",
          "type": "uint256"
        },
        {
          "name": "_licenceNo",
          "type": "string"
        }
      ],
      "name": "setRawdealer",
      "outputs": [
        {
          "name": "",
          "type": "bool"
        }
      ],
      "payable": false,
      "stateMutability": "nonpayable",
      "type": "function"
    },
    {
      "constant": true,
      "inputs": [
        {
          "name": "_companyID",
          "type": "uint256"
        }
      ],
      "name": "getRawdealer",
      "outputs": [
        {
          "name": "_companyName",
          "type": "string"
        },
        {
          "name": "_email",
          "type": "string"
        },
        {
          "name": "_phone",
          "type": "uint256"
        },
        {
          "name": "_companyAddress",
          "type": "string"
        },
        {
          "name": "_state",
          "type": "string"
        },
        {
          "name": "_place",
          "type": "string"
        },
        {
          "name": "_pincode",
          "type": "uint256"
        },
        {
          "name": "_licenceNo",
          "type": "string"
        }
      ],
      "payable": false,
      "stateMutability": "view",
      "type": "function"
    },
    {
      "constant": false,
      "inputs": [
        {
          "name": "_companyID",
          "type": "uint256"
        },
        {
          "name": "_companyName",
          "type": "string"
        },
        {
          "name": "_email",
          "type": "string"
        },
        {
          "name": "_phone",
          "type": "uint256"
        },
        {
          "name": "_companyAddress",
          "type": "string"
        },
        {
          "name": "_state",
          "type": "string"
        },
        {
          "name": "_place",
          "type": "string"
        },
        {
          "name": "_pincode",
          "type": "uint256"
        },
        {
          "name": "_licenceNo",
          "type": "string"
        }
      ],
      "name": "setManufacturer",
      "outputs": [
        {
          "name": "",
          "type": "bool"
        }
      ],
      "payable": false,
      "stateMutability": "nonpayable",
      "type": "function"
    },
    {
      "constant": true,
      "inputs": [
        {
          "name": "_companyID",
          "type": "uint256"
        }
      ],
      "name": "getManufacturer",
      "outputs": [
        {
          "name": "_companyName",
          "type": "string"
        },
        {
          "name": "_email",
          "type": "string"
        },
        {
          "name": "_phone",
          "type": "uint256"
        },
        {
          "name": "_companyAddress",
          "type": "string"
        },
        {
          "name": "_state",
          "type": "string"
        },
        {
          "name": "_place",
          "type": "string"
        },
        {
          "name": "_pincode",
          "type": "uint256"
        },
        {
          "name": "_licenceNo",
          "type": "string"
        }
      ],
      "payable": false,
      "stateMutability": "view",
      "type": "function"
    },
    {
      "constant": false,
      "inputs": [
        {
          "name": "_sellerID",
          "type": "uint256"
        },
        {
          "name": "_sellerName",
          "type": "string"
        },
        {
          "name": "_email",
          "type": "string"
        },
        {
          "name": "_phone",
          "type": "uint256"
        },
        {
          "name": "_sellerAddress",
          "type": "string"
        },
        {
          "name": "_state",
          "type": "string"
        },
        {
          "name": "_place",
          "type": "string"
        },
        {
          "name": "_pincode",
          "type": "uint256"
        },
        {
          "name": "_licenceNo",
          "type": "string"
        }
      ],
      "name": "setSeller",
      "outputs": [
        {
          "name": "",
          "type": "bool"
        }
      ],
      "payable": false,
      "stateMutability": "nonpayable",
      "type": "function"
    },
    {
      "constant": true,
      "inputs": [
        {
          "name": "_sellerID",
          "type": "uint256"
        }
      ],
      "name": "getSeller",
      "outputs": [
        {
          "name": "_sellerName",
          "type": "string"
        },
        {
          "name": "_email",
          "type": "string"
        },
        {
          "name": "_phone",
          "type": "uint256"
        },
        {
          "name": "_sellerAddress",
          "type": "string"
        },
        {
          "name": "_state",
          "type": "string"
        },
        {
          "name": "_place",
          "type": "string"
        },
        {
          "name": "_pincode",
          "type": "uint256"
        },
        {
          "name": "_licenceNo",
          "type": "string"
        }
      ],
      "payable": false,
      "stateMutability": "view",
      "type": "function"
    },
    {
      "constant": false,
      "inputs": [
        {
          "name": "_batch",
          "type": "uint256"
        },
        {
          "name": "_materialID",
          "type": "uint256"
        },
        {
          "name": "_materialName",
          "type": "string"
        },
        {
          "name": "_quantity",
          "type": "uint256"
        },
        {
          "name": "_numberOfProducts",
          "type": "uint256"
        },
        {
          "name": "_productName",
          "type": "string"
        },
        {
          "name": "_companyName",
          "type": "string"
        },
        {
          "name": "_purchaseDate",
          "type": "uint256"
        },
        {
          "name": "_validtill",
          "type": "uint256"
        },
        {
          "name": "_expirayDate",
          "type": "uint256"
        }
      ],
      "name": "setRawMaterial",
      "outputs": [],
      "payable": false,
      "stateMutability": "nonpayable",
      "type": "function"
    },
    {
      "constant": true,
      "inputs": [
        {
          "name": "_batch",
          "type": "uint256"
        }
      ],
      "name": "getLen",
      "outputs": [
        {
          "name": "_len",
          "type": "uint256"
        }
      ],
      "payable": false,
      "stateMutability": "view",
      "type": "function"
    },
    {
      "constant": true,
      "inputs": [
        {
          "name": "_batch",
          "type": "uint256"
        }
      ],
      "name": "getLenOfproduct",
      "outputs": [
        {
          "name": "_len",
          "type": "uint256"
        }
      ],
      "payable": false,
      "stateMutability": "view",
      "type": "function"
    },
    {
      "constant": false,
      "inputs": [
        {
          "name": "_productID",
          "type": "uint256"
        },
        {
          "name": "_productName",
          "type": "string"
        },
        {
          "name": "_quantity",
          "type": "uint256"
        },
        {
          "name": "_companyName",
          "type": "string"
        },
        {
          "name": "_MRP",
          "type": "uint256"
        },
        {
          "name": "_expireInMonths",
          "type": "uint256"
        },
        {
          "name": "_MFD",
          "type": "uint256"
        },
        {
          "name": "_EXP",
          "type": "uint256"
        },
        {
          "name": "_batch",
          "type": "uint256"
        }
      ],
      "name": "setProducts",
      "outputs": [],
      "payable": false,
      "stateMutability": "nonpayable",
      "type": "function"
    },
    {
      "constant": true,
      "inputs": [
        {
          "name": "_billID",
          "type": "uint256"
        }
      ],
      "name": "getLenOfbilled",
      "outputs": [
        {
          "name": "_len",
          "type": "uint256"
        }
      ],
      "payable": false,
      "stateMutability": "view",
      "type": "function"
    },
    {
      "constant": false,
      "inputs": [
        {
          "name": "_billID",
          "type": "uint256"
        },
        {
          "name": "_shopID",
          "type": "string"
        },
        {
          "name": "_purchaseDate",
          "type": "uint256"
        },
        {
          "name": "_productID",
          "type": "uint256"
        }
      ],
      "name": "setbill",
      "outputs": [
        {
          "name": "",
          "type": "bool"
        }
      ],
      "payable": false,
      "stateMutability": "nonpayable",
      "type": "function"
    }
  ],
  "bytecode": "0x608060405262278d006001554260025534801561001b57600080fd5b50336000806101000a81548173ffffffffffffffffffffffffffffffffffffffff021916908373ffffffffffffffffffffffffffffffffffffffff1602179055506151958061006b6000396000f3fe608060405260043610610149576000357c0100000000000000000000000000000000000000000000000000000000900463ffffffff168063143bd0b81461014e57806331059ff91461054057806331f86706146107005780633bfe11ae1461074f57806341291908146108f557806342f3588514610bd35780636db3d1ed14610d1d5780636ec3188d14610ffb578063702921f51461104a57806375d8ec45146110755780637af74978146110c45780637d2661ad146114b6578063a7045b6a14611582578063aabd4fd4146115db578063adf78f78146119cd578063af88f75c14611c0a578063b527fb7914611ee8578063b908863e146121c6578063c267ef46146122c4578063d18e81b314612313578063d6a9de511461233e578063e4018aab1461261c578063ed03604d14612647578063f188aa0814612672578063f7b15f5b14612950575b600080fd5b34801561015a57600080fd5b50610526600480360361012081101561017257600080fd5b81019080803590602001909291908035906020019064010000000081111561019957600080fd5b8201836020820111156101ab57600080fd5b803590602001918460018302840111640100000000831117156101cd57600080fd5b91908080601f016020809104026020016040519081016040528093929190818152602001838380828437600081840152601f19601f8201169050808301925050505050505091929192908035906020019064010000000081111561023057600080fd5b82018360208201111561024257600080fd5b8035906020019184600183028401116401000000008311171561026457600080fd5b91908080601f016020809104026020016040519081016040528093929190818152602001838380828437600081840152601f19601f82011690508083019250505050505050919291929080359060200190929190803590602001906401000000008111156102d157600080fd5b8201836020820111156102e357600080fd5b8035906020019184600183028401116401000000008311171561030557600080fd5b91908080601f016020809104026020016040519081016040528093929190818152602001838380828437600081840152601f19601f8201169050808301925050505050505091929192908035906020019064010000000081111561036857600080fd5b82018360208201111561037a57600080fd5b8035906020019184600183028401116401000000008311171561039c57600080fd5b91908080601f016020809104026020016040519081016040528093929190818152602001838380828437600081840152601f19601f820116905080830192505050505050509192919290803590602001906401000000008111156103ff57600080fd5b82018360208201111561041157600080fd5b8035906020019184600183028401116401000000008311171561043357600080fd5b91908080601f016020809104026020016040519081016040528093929190818152602001838380828437600081840152601f19601f82011690508083019250505050505050919291929080359060200190929190803590602001906401000000008111156104a057600080fd5b8201836020820111156104b257600080fd5b803590602001918460018302840111640100000000831117156104d457600080fd5b91908080601f016020809104026020016040519081016040528093929190818152602001838380828437600081840152601f19601f82011690508083019250505050505050919291929050505061299f565b604051808215151515815260200191505060405180910390f35b34801561054c57600080fd5b506105836004803603604081101561056357600080fd5b810190808035906020019092919080359060200190929190505050612b1c565b604051808a815260200180602001898152602001888152602001806020018060200187815260200186815260200185815260200184810384528c818151815260200191508051906020019080838360005b838110156105ef5780820151818401526020810190506105d4565b50505050905090810190601f16801561061c5780820380516001836020036101000a031916815260200191505b50848103835289818151815260200191508051906020019080838360005b8381101561065557808201518184015260208101905061063a565b50505050905090810190601f1680156106825780820380516001836020036101000a031916815260200191505b50848103825288818151815260200191508051906020019080838360005b838110156106bb5780820151818401526020810190506106a0565b50505050905090810190601f1680156106e85780820380516001836020036101000a031916815260200191505b509c5050505050505050505050505060405180910390f35b34801561070c57600080fd5b506107396004803603602081101561072357600080fd5b8101908080359060200190929190505050612d4e565b6040518082815260200191505060405180910390f35b34801561075b57600080fd5b506108f3600480360361012081101561077357600080fd5b81019080803590602001909291908035906020019064010000000081111561079a57600080fd5b8201836020820111156107ac57600080fd5b803590602001918460018302840111640100000000831117156107ce57600080fd5b91908080601f016020809104026020016040519081016040528093929190818152602001838380828437600081840152601f19601f820116905080830192505050505050509192919290803590602001909291908035906020019064010000000081111561083b57600080fd5b82018360208201111561084d57600080fd5b8035906020019184600183028401116401000000008311171561086f57600080fd5b91908080601f016020809104026020016040519081016040528093929190818152602001838380828437600081840152601f19601f8201169050808301925050505050505091929192908035906020019092919080359060200190929190803590602001909291908035906020019092919080359060200190929190505050612d6e565b005b34801561090157600080fd5b5061092e6004803603602081101561091857600080fd5b8101908080359060200190929190505050612fb3565b6040518080602001806020018981526020018060200180602001806020018881526020018060200187810387528f818151815260200191508051906020019080838360005b8381101561098e578082015181840152602081019050610973565b50505050905090810190601f1680156109bb5780820380516001836020036101000a031916815260200191505b5087810386528e818151815260200191508051906020019080838360005b838110156109f45780820151818401526020810190506109d9565b50505050905090810190601f168015610a215780820380516001836020036101000a031916815260200191505b5087810385528c818151815260200191508051906020019080838360005b83811015610a5a578082015181840152602081019050610a3f565b50505050905090810190601f168015610a875780820380516001836020036101000a031916815260200191505b5087810384528b818151815260200191508051906020019080838360005b83811015610ac0578082015181840152602081019050610aa5565b50505050905090810190601f168015610aed5780820380516001836020036101000a031916815260200191505b5087810383528a818151815260200191508051906020019080838360005b83811015610b26578082015181840152602081019050610b0b565b50505050905090810190601f168015610b535780820380516001836020036101000a031916815260200191505b50878103825288818151815260200191508051906020019080838360005b83811015610b8c578082015181840152602081019050610b71565b50505050905090810190601f168015610bb95780820380516001836020036101000a031916815260200191505b509e50505050505050505050505050505060405180910390f35b348015610bdf57600080fd5b50610c0c60048036036020811015610bf657600080fd5b810190808035906020019092919050505061338b565b60405180806020018981526020018060200188815260200187815260200186815260200185815260200184815260200183810383528b818151815260200191508051906020019080838360005b83811015610c74578082015181840152602081019050610c59565b50505050905090810190601f168015610ca15780820380516001836020036101000a031916815260200191505b50838103825289818151815260200191508051906020019080838360005b83811015610cda578082015181840152602081019050610cbf565b50505050905090810190601f168015610d075780820380516001836020036101000a031916815260200191505b509a505050505050505050505060405180910390f35b348015610d2957600080fd5b50610d5660048036036020811015610d4057600080fd5b8101908080359060200190929190505050613503565b6040518080602001806020018981526020018060200180602001806020018881526020018060200187810387528f818151815260200191508051906020019080838360005b83811015610db6578082015181840152602081019050610d9b565b50505050905090810190601f168015610de35780820380516001836020036101000a031916815260200191505b5087810386528e818151815260200191508051906020019080838360005b83811015610e1c578082015181840152602081019050610e01565b50505050905090810190601f168015610e495780820380516001836020036101000a031916815260200191505b5087810385528c818151815260200191508051906020019080838360005b83811015610e82578082015181840152602081019050610e67565b50505050905090810190601f168015610eaf5780820380516001836020036101000a031916815260200191505b5087810384528b818151815260200191508051906020019080838360005b83811015610ee8578082015181840152602081019050610ecd565b50505050905090810190601f168015610f155780820380516001836020036101000a031916815260200191505b5087810383528a818151815260200191508051906020019080838360005b83811015610f4e578082015181840152602081019050610f33565b50505050905090810190601f168015610f7b5780820380516001836020036101000a031916815260200191505b50878103825288818151815260200191508051906020019080838360005b83811015610fb4578082015181840152602081019050610f99565b50505050905090810190601f168015610fe15780820380516001836020036101000a031916815260200191505b509e50505050505050505050505050505060405180910390f35b34801561100757600080fd5b506110346004803603602081101561101e57600080fd5b81019080803590602001909291905050506138db565b6040518082815260200191505060405180910390f35b34801561105657600080fd5b5061105f6138f3565b6040518082815260200191505060405180910390f35b34801561108157600080fd5b506110ae6004803603602081101561109857600080fd5b81019080803590602001909291905050506138f9565b6040518082815260200191505060405180910390f35b3480156110d057600080fd5b5061149c60048036036101208110156110e857600080fd5b81019080803590602001909291908035906020019064010000000081111561110f57600080fd5b82018360208201111561112157600080fd5b8035906020019184600183028401116401000000008311171561114357600080fd5b91908080601f016020809104026020016040519081016040528093929190818152602001838380828437600081840152601f19601f820116905080830192505050505050509192919290803590602001906401000000008111156111a657600080fd5b8201836020820111156111b857600080fd5b803590602001918460018302840111640100000000831117156111da57600080fd5b91908080601f016020809104026020016040519081016040528093929190818152602001838380828437600081840152601f19601f820116905080830192505050505050509192919290803590602001909291908035906020019064010000000081111561124757600080fd5b82018360208201111561125957600080fd5b8035906020019184600183028401116401000000008311171561127b57600080fd5b91908080601f016020809104026020016040519081016040528093929190818152602001838380828437600081840152601f19601f820116905080830192505050505050509192919290803590602001906401000000008111156112de57600080fd5b8201836020820111156112f057600080fd5b8035906020019184600183028401116401000000008311171561131257600080fd5b91908080601f016020809104026020016040519081016040528093929190818152602001838380828437600081840152601f19601f8201169050808301925050505050505091929192908035906020019064010000000081111561137557600080fd5b82018360208201111561138757600080fd5b803590602001918460018302840111640100000000831117156113a957600080fd5b91908080601f016020809104026020016040519081016040528093929190818152602001838380828437600081840152601f19601f820116905080830192505050505050509192919290803590602001909291908035906020019064010000000081111561141657600080fd5b82018360208201111561142857600080fd5b8035906020019184600183028401116401000000008311171561144a57600080fd5b91908080601f016020809104026020016040519081016040528093929190818152602001838380828437600081840152601f19601f820116905080830192505050505050509192919290505050613919565b604051808215151515815260200191505060405180910390f35b3480156114c257600080fd5b506114f9600480360360408110156114d957600080fd5b810190808035906020019092919080359060200190929190505050613a96565b6040518080602001848152602001838152602001828103825285818151815260200191508051906020019080838360005b8381101561154557808201518184015260208101905061152a565b50505050905090810190601f1680156115725780820380516001836020036101000a031916815260200191505b5094505050505060405180910390f35b34801561158e57600080fd5b506115c5600480360360408110156115a557600080fd5b810190808035906020019092919080359060200190929190505050613b74565b6040518082815260200191505060405180910390f35b3480156115e757600080fd5b506119b360048036036101208110156115ff57600080fd5b81019080803590602001909291908035906020019064010000000081111561162657600080fd5b82018360208201111561163857600080fd5b8035906020019184600183028401116401000000008311171561165a57600080fd5b91908080601f016020809104026020016040519081016040528093929190818152602001838380828437600081840152601f19601f820116905080830192505050505050509192919290803590602001906401000000008111156116bd57600080fd5b8201836020820111156116cf57600080fd5b803590602001918460018302840111640100000000831117156116f157600080fd5b91908080601f016020809104026020016040519081016040528093929190818152602001838380828437600081840152601f19601f820116905080830192505050505050509192919290803590602001909291908035906020019064010000000081111561175e57600080fd5b82018360208201111561177057600080fd5b8035906020019184600183028401116401000000008311171561179257600080fd5b91908080601f016020809104026020016040519081016040528093929190818152602001838380828437600081840152601f19601f820116905080830192505050505050509192919290803590602001906401000000008111156117f557600080fd5b82018360208201111561180757600080fd5b8035906020019184600183028401116401000000008311171561182957600080fd5b91908080601f016020809104026020016040519081016040528093929190818152602001838380828437600081840152601f19601f8201169050808301925050505050505091929192908035906020019064010000000081111561188c57600080fd5b82018360208201111561189e57600080fd5b803590602001918460018302840111640100000000831117156118c057600080fd5b91908080601f016020809104026020016040519081016040528093929190818152602001838380828437600081840152601f19601f820116905080830192505050505050509192919290803590602001909291908035906020019064010000000081111561192d57600080fd5b82018360208201111561193f57600080fd5b8035906020019184600183028401116401000000008311171561196157600080fd5b91908080601f016020809104026020016040519081016040528093929190818152602001838380828437600081840152601f19601f820116905080830192505050505050509192919290505050613ba4565b604051808215151515815260200191505060405180910390f35b3480156119d957600080fd5b50611c0860048036036101408110156119f157600080fd5b81019080803590602001909291908035906020019092919080359060200190640100000000811115611a2257600080fd5b820183602082011115611a3457600080fd5b80359060200191846001830284011164010000000083111715611a5657600080fd5b91908080601f016020809104026020016040519081016040528093929190818152602001838380828437600081840152601f19601f820116905080830192505050505050509192919290803590602001909291908035906020019092919080359060200190640100000000811115611acd57600080fd5b820183602082011115611adf57600080fd5b80359060200191846001830284011164010000000083111715611b0157600080fd5b91908080601f016020809104026020016040519081016040528093929190818152602001838380828437600081840152601f19601f82011690508083019250505050505050919291929080359060200190640100000000811115611b6457600080fd5b820183602082011115611b7657600080fd5b80359060200191846001830284011164010000000083111715611b9857600080fd5b91908080601f016020809104026020016040519081016040528093929190818152602001838380828437600081840152601f19601f820116905080830192505050505050509192919290803590602001909291908035906020019092919080359060200190929190505050613d21565b005b348015611c1657600080fd5b50611c4360048036036020811015611c2d57600080fd5b8101908080359060200190929190505050613e52565b6040518080602001806020018981526020018060200180602001806020018881526020018060200187810387528f818151815260200191508051906020019080838360005b83811015611ca3578082015181840152602081019050611c88565b50505050905090810190601f168015611cd05780820380516001836020036101000a031916815260200191505b5087810386528e818151815260200191508051906020019080838360005b83811015611d09578082015181840152602081019050611cee565b50505050905090810190601f168015611d365780820380516001836020036101000a031916815260200191505b5087810385528c818151815260200191508051906020019080838360005b83811015611d6f578082015181840152602081019050611d54565b50505050905090810190601f168015611d9c5780820380516001836020036101000a031916815260200191505b5087810384528b818151815260200191508051906020019080838360005b83811015611dd5578082015181840152602081019050611dba565b50505050905090810190601f168015611e025780820380516001836020036101000a031916815260200191505b5087810383528a818151815260200191508051906020019080838360005b83811015611e3b578082015181840152602081019050611e20565b50505050905090810190601f168015611e685780820380516001836020036101000a031916815260200191505b50878103825288818151815260200191508051906020019080838360005b83811015611ea1578082015181840152602081019050611e86565b50505050905090810190601f168015611ece5780820380516001836020036101000a031916815260200191505b509e50505050505050505050505050505060405180910390f35b348015611ef457600080fd5b50611f2160048036036020811015611f0b57600080fd5b810190808035906020019092919050505061422a565b6040518080602001806020018981526020018060200180602001806020018881526020018060200187810387528f818151815260200191508051906020019080838360005b83811015611f81578082015181840152602081019050611f66565b50505050905090810190601f168015611fae5780820380516001836020036101000a031916815260200191505b5087810386528e818151815260200191508051906020019080838360005b83811015611fe7578082015181840152602081019050611fcc565b50505050905090810190601f1680156120145780820380516001836020036101000a031916815260200191505b5087810385528c818151815260200191508051906020019080838360005b8381101561204d578082015181840152602081019050612032565b50505050905090810190601f16801561207a5780820380516001836020036101000a031916815260200191505b5087810384528b818151815260200191508051906020019080838360005b838110156120b3578082015181840152602081019050612098565b50505050905090810190601f1680156120e05780820380516001836020036101000a031916815260200191505b5087810383528a818151815260200191508051906020019080838360005b838110156121195780820151818401526020810190506120fe565b50505050905090810190601f1680156121465780820380516001836020036101000a031916815260200191505b50878103825288818151815260200191508051906020019080838360005b8381101561217f578082015181840152602081019050612164565b50505050905090810190601f1680156121ac5780820380516001836020036101000a031916815260200191505b509e50505050505050505050505050505060405180910390f35b3480156121d257600080fd5b506122aa600480360360808110156121e957600080fd5b81019080803590602001909291908035906020019064010000000081111561221057600080fd5b82018360208201111561222257600080fd5b8035906020019184600183028401116401000000008311171561224457600080fd5b91908080601f016020809104026020016040519081016040528093929190818152602001838380828437600081840152601f19601f820116905080830192505050505050509192919290803590602001909291908035906020019092919050505061469b565b604051808215151515815260200191505060405180910390f35b3480156122d057600080fd5b506122fd600480360360208110156122e757600080fd5b8101908080359060200190929190505050614798565b6040518082815260200191505060405180910390f35b34801561231f57600080fd5b506123286147b0565b6040518082815260200191505060405180910390f35b34801561234a57600080fd5b506123776004803603602081101561236157600080fd5b81019080803590602001909291905050506147b6565b6040518080602001806020018981526020018060200180602001806020018881526020018060200187810387528f818151815260200191508051906020019080838360005b838110156123d75780820151818401526020810190506123bc565b50505050905090810190601f1680156124045780820380516001836020036101000a031916815260200191505b5087810386528e818151815260200191508051906020019080838360005b8381101561243d578082015181840152602081019050612422565b50505050905090810190601f16801561246a5780820380516001836020036101000a031916815260200191505b5087810385528c818151815260200191508051906020019080838360005b838110156124a3578082015181840152602081019050612488565b50505050905090810190601f1680156124d05780820380516001836020036101000a031916815260200191505b5087810384528b818151815260200191508051906020019080838360005b838110156125095780820151818401526020810190506124ee565b50505050905090810190601f1680156125365780820380516001836020036101000a031916815260200191505b5087810383528a818151815260200191508051906020019080838360005b8381101561256f578082015181840152602081019050612554565b50505050905090810190601f16801561259c5780820380516001836020036101000a031916815260200191505b50878103825288818151815260200191508051906020019080838360005b838110156125d55780820151818401526020810190506125ba565b50505050905090810190601f1680156126025780820380516001836020036101000a031916815260200191505b509e50505050505050505050505050505060405180910390f35b34801561262857600080fd5b50612631614c27565b6040518082815260200191505060405180910390f35b34801561265357600080fd5b5061265c614c2d565b6040518082815260200191505060405180910390f35b34801561267e57600080fd5b506126ab6004803603602081101561269557600080fd5b8101908080359060200190929190505050614c33565b6040518080602001806020018981526020018060200180602001806020018881526020018060200187810387528f818151815260200191508051906020019080838360005b8381101561270b5780820151818401526020810190506126f0565b50505050905090810190601f1680156127385780820380516001836020036101000a031916815260200191505b5087810386528e818151815260200191508051906020019080838360005b83811015612771578082015181840152602081019050612756565b50505050905090810190601f16801561279e5780820380516001836020036101000a031916815260200191505b5087810385528c818151815260200191508051906020019080838360005b838110156127d75780820151818401526020810190506127bc565b50505050905090810190601f1680156128045780820380516001836020036101000a031916815260200191505b5087810384528b818151815260200191508051906020019080838360005b8381101561283d578082015181840152602081019050612822565b50505050905090810190601f16801561286a5780820380516001836020036101000a031916815260200191505b5087810383528a818151815260200191508051906020019080838360005b838110156128a3578082015181840152602081019050612888565b50505050905090810190601f1680156128d05780820380516001836020036101000a031916815260200191505b50878103825288818151815260200191508051906020019080838360005b838110156129095780820151818401526020810190506128ee565b50505050905090810190601f1680156129365780820380516001836020036101000a031916815260200191505b509e50505050505050505050505050505060405180910390f35b34801561295c57600080fd5b506129896004803603602081101561297357600080fd5b81019080803590602001909291905050506150a4565b6040518082815260200191505060405180910390f35b60008060009054906101000a900473ffffffffffffffffffffffffffffffffffffffff1673ffffffffffffffffffffffffffffffffffffffff163373ffffffffffffffffffffffffffffffffffffffff161415156129fc57600080fd5b610100604051908101604052808a815260200189815260200188815260200187815260200186815260200185815260200184815260200183815250600760008c81526020019081526020016000206000820151816000019080519060200190612a669291906150c4565b506020820151816001019080519060200190612a839291906150c4565b50604082015181600201556060820151816003019080519060200190612aaa9291906150c4565b506080820151816004019080519060200190612ac79291906150c4565b5060a0820151816005019080519060200190612ae49291906150c4565b5060c0820151816006015560e0820151816007019080519060200190612b0b9291906150c4565b509050509998505050505050505050565b600860205281600052604060002081815481101515612b3757fe5b906000526020600020906009020160009150915050806000015490806001018054600181600116156101000203166002900480601f016020809104026020016040519081016040528092919081815260200182805460018160011615610100020316600290048015612bea5780601f10612bbf57610100808354040283529160200191612bea565b820191906000526020600020905b815481529060010190602001808311612bcd57829003601f168201915b505050505090806002015490806003015490806004018054600181600116156101000203166002900480601f016020809104026020016040519081016040528092919081815260200182805460018160011615610100020316600290048015612c945780601f10612c6957610100808354040283529160200191612c94565b820191906000526020600020905b815481529060010190602001808311612c7757829003601f168201915b505050505090806005018054600181600116156101000203166002900480601f016020809104026020016040519081016040528092919081815260200182805460018160011615610100020316600290048015612d325780601f10612d0757610100808354040283529160200191612d32565b820191906000526020600020905b815481529060010190602001808311612d1557829003601f168201915b5050505050908060060154908060070154908060080154905089565b6000600d6000838152602001908152602001600020805490509050919050565b80429350846001540294508442019250600860008381526020019081526020016000206000815481101515612d9f57fe5b906000526020600020906009020160030154600b81905550600860008381526020019081526020016000206000815481101515612dd857fe5b906000526020600020906009020160080154600c81905550610100604051908101604052808a815260200189815260200188815260200187815260200186815260200185815260200184815260200183815250600960008c81526020019081526020016000206000820151816000019080519060200190612e5a9291906150c4565b50602082015181600101556040820151816002019080519060200190612e819291906150c4565b50606082015181600301556080820151816004015560a0820151816005015560c0820151816006015560e08201518160070155905050600a60008381526020019081526020016000208a908060018154018082558091505090600182039060005260206000200160009091929091909150555060016003600084815260200190815260200160002060008282540192505081905550600860008281526020019081526020016000206000815481101515612f3757fe5b906000526020600020906009020160030154600360008381526020019081526020016000205411158015612f9c5750600860008281526020019081526020016000206000815481101515612f8757fe5b90600052602060002090600902016008015442105b1515612fa757600080fd5b50505050505050505050565b6006602052806000526040600020600091509050806000018054600181600116156101000203166002900480601f01602080910402602001604051908101604052809291908181526020018280546001816001161561010002031660029004801561305f5780601f106130345761010080835404028352916020019161305f565b820191906000526020600020905b81548152906001019060200180831161304257829003601f168201915b505050505090806001018054600181600116156101000203166002900480601f0160208091040260200160405190810160405280929190818152602001828054600181600116156101000203166002900480156130fd5780601f106130d2576101008083540402835291602001916130fd565b820191906000526020600020905b8154815290600101906020018083116130e057829003601f168201915b505050505090806002015490806003018054600181600116156101000203166002900480601f0160208091040260200160405190810160405280929190818152602001828054600181600116156101000203166002900480156131a15780601f10613176576101008083540402835291602001916131a1565b820191906000526020600020905b81548152906001019060200180831161318457829003601f168201915b505050505090806004018054600181600116156101000203166002900480601f01602080910402602001604051908101604052809291908181526020018280546001816001161561010002031660029004801561323f5780601f106132145761010080835404028352916020019161323f565b820191906000526020600020905b81548152906001019060200180831161322257829003601f168201915b505050505090806005018054600181600116156101000203166002900480601f0160208091040260200160405190810160405280929190818152602001828054600181600116156101000203166002900480156132dd5780601f106132b2576101008083540402835291602001916132dd565b820191906000526020600020905b8154815290600101906020018083116132c057829003601f168201915b505050505090806006015490806007018054600181600116156101000203166002900480601f0160208091040260200160405190810160405280929190818152602001828054600181600116156101000203166002900480156133815780601f1061335657610100808354040283529160200191613381565b820191906000526020600020905b81548152906001019060200180831161336457829003601f168201915b5050505050905088565b6009602052806000526040600020600091509050806000018054600181600116156101000203166002900480601f0160208091040260200160405190810160405280929190818152602001828054600181600116156101000203166002900480156134375780601f1061340c57610100808354040283529160200191613437565b820191906000526020600020905b81548152906001019060200180831161341a57829003601f168201915b505050505090806001015490806002018054600181600116156101000203166002900480601f0160208091040260200160405190810160405280929190818152602001828054600181600116156101000203166002900480156134db5780601f106134b0576101008083540402835291602001916134db565b820191906000526020600020905b8154815290600101906020018083116134be57829003601f168201915b5050505050908060030154908060040154908060050154908060060154908060070154905088565b6005602052806000526040600020600091509050806000018054600181600116156101000203166002900480601f0160208091040260200160405190810160405280929190818152602001828054600181600116156101000203166002900480156135af5780601f10613584576101008083540402835291602001916135af565b820191906000526020600020905b81548152906001019060200180831161359257829003601f168201915b505050505090806001018054600181600116156101000203166002900480601f01602080910402602001604051908101604052809291908181526020018280546001816001161561010002031660029004801561364d5780601f106136225761010080835404028352916020019161364d565b820191906000526020600020905b81548152906001019060200180831161363057829003601f168201915b505050505090806002015490806003018054600181600116156101000203166002900480601f0160208091040260200160405190810160405280929190818152602001828054600181600116156101000203166002900480156136f15780601f106136c6576101008083540402835291602001916136f1565b820191906000526020600020905b8154815290600101906020018083116136d457829003601f168201915b505050505090806004018054600181600116156101000203166002900480601f01602080910402602001604051908101604052809291908181526020018280546001816001161561010002031660029004801561378f5780601f106137645761010080835404028352916020019161378f565b820191906000526020600020905b81548152906001019060200180831161377257829003601f168201915b505050505090806005018054600181600116156101000203166002900480601f01602080910402602001604051908101604052809291908181526020018280546001816001161561010002031660029004801561382d5780601f106138025761010080835404028352916020019161382d565b820191906000526020600020905b81548152906001019060200180831161381057829003601f168201915b505050505090806006015490806007018054600181600116156101000203166002900480601f0160208091040260200160405190810160405280929190818152602001828054600181600116156101000203166002900480156138d15780601f106138a6576101008083540402835291602001916138d1565b820191906000526020600020905b8154815290600101906020018083116138b457829003601f168201915b5050505050905088565b60046020528060005260406000206000915090505481565b60015481565b600060086000838152602001908152602001600020805490509050919050565b60008060009054906101000a900473ffffffffffffffffffffffffffffffffffffffff1673ffffffffffffffffffffffffffffffffffffffff163373ffffffffffffffffffffffffffffffffffffffff1614151561397657600080fd5b610100604051908101604052808a815260200189815260200188815260200187815260200186815260200185815260200184815260200183815250600660008c815260200190815260200160002060008201518160000190805190602001906139e09291906150c4565b5060208201518160010190805190602001906139fd9291906150c4565b50604082015181600201556060820151816003019080519060200190613a249291906150c4565b506080820151816004019080519060200190613a419291906150c4565b5060a0820151816005019080519060200190613a5e9291906150c4565b5060c0820151816006015560e0820151816007019080519060200190613a859291906150c4565b509050509998505050505050505050565b600d60205281600052604060002081815481101515613ab157fe5b906000526020600020906003020160009150915050806000018054600181600116156101000203166002900480601f016020809104026020016040519081016040528092919081815260200182805460018160011615610100020316600290048015613b5e5780601f10613b3357610100808354040283529160200191613b5e565b820191906000526020600020905b815481529060010190602001808311613b4157829003601f168201915b5050505050908060010154908060020154905083565b600a60205281600052604060002081815481101515613b8f57fe5b90600052602060002001600091509150505481565b60008060009054906101000a900473ffffffffffffffffffffffffffffffffffffffff1673ffffffffffffffffffffffffffffffffffffffff163373ffffffffffffffffffffffffffffffffffffffff16141515613c0157600080fd5b610100604051908101604052808a815260200189815260200188815260200187815260200186815260200185815260200184815260200183815250600560008c81526020019081526020016000206000820151816000019080519060200190613c6b9291906150c4565b506020820151816001019080519060200190613c889291906150c4565b50604082015181600201556060820151816003019080519060200190613caf9291906150c4565b506080820151816004019080519060200190613ccc9291906150c4565b5060a0820151816005019080519060200190613ce99291906150c4565b5060c0820151816006015560e0820151816007019080519060200190613d109291906150c4565b509050509998505050505050505050565b429250816001540291508142019050600860008b8152602001908152602001600020610120604051908101604052808b81526020018a81526020018981526020018881526020018781526020018681526020018581526020018481526020018381525090806001815401808255809150509060018203906000526020600020906009020160009091929091909150600082015181600001556020820151816001019080519060200190613dd59291906150c4565b5060408201518160020155606082015181600301556080820151816004019080519060200190613e069291906150c4565b5060a0820151816005019080519060200190613e239291906150c4565b5060c0820151816006015560e08201518160070155610100820151816008015550505050505050505050505050565b6007602052806000526040600020600091509050806000018054600181600116156101000203166002900480601f016020809104026020016040519081016040528092919081815260200182805460018160011615610100020316600290048015613efe5780601f10613ed357610100808354040283529160200191613efe565b820191906000526020600020905b815481529060010190602001808311613ee157829003601f168201915b505050505090806001018054600181600116156101000203166002900480601f016020809104026020016040519081016040528092919081815260200182805460018160011615610100020316600290048015613f9c5780601f10613f7157610100808354040283529160200191613f9c565b820191906000526020600020905b815481529060010190602001808311613f7f57829003601f168201915b505050505090806002015490806003018054600181600116156101000203166002900480601f0160208091040260200160405190810160405280929190818152602001828054600181600116156101000203166002900480156140405780601f1061401557610100808354040283529160200191614040565b820191906000526020600020905b81548152906001019060200180831161402357829003601f168201915b505050505090806004018054600181600116156101000203166002900480601f0160208091040260200160405190810160405280929190818152602001828054600181600116156101000203166002900480156140de5780601f106140b3576101008083540402835291602001916140de565b820191906000526020600020905b8154815290600101906020018083116140c157829003601f168201915b505050505090806005018054600181600116156101000203166002900480601f01602080910402602001604051908101604052809291908181526020018280546001816001161561010002031660029004801561417c5780601f106141515761010080835404028352916020019161417c565b820191906000526020600020905b81548152906001019060200180831161415f57829003601f168201915b505050505090806006015490806007018054600181600116156101000203166002900480601f0160208091040260200160405190810160405280929190818152602001828054600181600116156101000203166002900480156142205780601f106141f557610100808354040283529160200191614220565b820191906000526020600020905b81548152906001019060200180831161420357829003601f168201915b5050505050905088565b6060806000606080606060006060600660008a81526020019081526020016000206000018054600181600116156101000203166002900480601f0160208091040260200160405190810160405280929190818152602001828054600181600116156101000203166002900480156142e25780601f106142b7576101008083540402835291602001916142e2565b820191906000526020600020905b8154815290600101906020018083116142c557829003601f168201915b50505050509750600660008a81526020019081526020016000206001018054600181600116156101000203166002900480601f0160208091040260200160405190810160405280929190818152602001828054600181600116156101000203166002900480156143935780601f1061436857610100808354040283529160200191614393565b820191906000526020600020905b81548152906001019060200180831161437657829003601f168201915b50505050509650600660008a8152602001908152602001600020600201549550600660008a81526020019081526020016000206003018054600181600116156101000203166002900480601f01602080910402602001604051908101604052809291908181526020018280546001816001161561010002031660029004801561445d5780601f106144325761010080835404028352916020019161445d565b820191906000526020600020905b81548152906001019060200180831161444057829003601f168201915b50505050509450600660008a81526020019081526020016000206004018054600181600116156101000203166002900480601f01602080910402602001604051908101604052809291908181526020018280546001816001161561010002031660029004801561450e5780601f106144e35761010080835404028352916020019161450e565b820191906000526020600020905b8154815290600101906020018083116144f157829003601f168201915b50505050509350600660008a81526020019081526020016000206005018054600181600116156101000203166002900480601f0160208091040260200160405190810160405280929190818152602001828054600181600116156101000203166002900480156145bf5780601f10614594576101008083540402835291602001916145bf565b820191906000526020600020905b8154815290600101906020018083116145a257829003601f168201915b50505050509250600660008a8152602001908152602001600020600601549150600660008a81526020019081526020016000206007018054600181600116156101000203166002900480601f0160208091040260200160405190810160405280929190818152602001828054600181600116156101000203166002900480156146895780601f1061465e57610100808354040283529160200191614689565b820191906000526020600020905b81548152906001019060200180831161466c57829003601f168201915b50505050509050919395975091939597565b600081600060046000838152602001908152602001600020541480156146d65750600960008281526020019081526020016000206006015442105b15156146e157600080fd5b429350600d60008781526020019081526020016000206060604051908101604052808781526020018681526020018581525090806001815401808255809150509060018203906000526020600020906003020160009091929091909150600082015181600001908051906020019061475a9291906150c4565b506020820151816001015560408201518160020155505050600160046000858152602001908152602001600020819055506001915050949350505050565b60036020528060005260406000206000915090505481565b60025481565b6060806000606080606060006060600760008a81526020019081526020016000206000018054600181600116156101000203166002900480601f01602080910402602001604051908101604052809291908181526020018280546001816001161561010002031660029004801561486e5780601f106148435761010080835404028352916020019161486e565b820191906000526020600020905b81548152906001019060200180831161485157829003601f168201915b50505050509750600760008a81526020019081526020016000206001018054600181600116156101000203166002900480601f01602080910402602001604051908101604052809291908181526020018280546001816001161561010002031660029004801561491f5780601f106148f45761010080835404028352916020019161491f565b820191906000526020600020905b81548152906001019060200180831161490257829003601f168201915b50505050509650600760008a8152602001908152602001600020600201549550600760008a81526020019081526020016000206003018054600181600116156101000203166002900480601f0160208091040260200160405190810160405280929190818152602001828054600181600116156101000203166002900480156149e95780601f106149be576101008083540402835291602001916149e9565b820191906000526020600020905b8154815290600101906020018083116149cc57829003601f168201915b50505050509450600760008a81526020019081526020016000206004018054600181600116156101000203166002900480601f016020809104026020016040519081016040528092919081815260200182805460018160011615610100020316600290048015614a9a5780601f10614a6f57610100808354040283529160200191614a9a565b820191906000526020600020905b815481529060010190602001808311614a7d57829003601f168201915b50505050509350600760008a81526020019081526020016000206005018054600181600116156101000203166002900480601f016020809104026020016040519081016040528092919081815260200182805460018160011615610100020316600290048015614b4b5780601f10614b2057610100808354040283529160200191614b4b565b820191906000526020600020905b815481529060010190602001808311614b2e57829003601f168201915b50505050509250600760008a8152602001908152602001600020600601549150600760008a81526020019081526020016000206007018054600181600116156101000203166002900480601f016020809104026020016040519081016040528092919081815260200182805460018160011615610100020316600290048015614c155780601f10614bea57610100808354040283529160200191614c15565b820191906000526020600020905b815481529060010190602001808311614bf857829003601f168201915b50505050509050919395975091939597565b600b5481565b600c5481565b6060806000606080606060006060600560008a81526020019081526020016000206000018054600181600116156101000203166002900480601f016020809104026020016040519081016040528092919081815260200182805460018160011615610100020316600290048015614ceb5780601f10614cc057610100808354040283529160200191614ceb565b820191906000526020600020905b815481529060010190602001808311614cce57829003601f168201915b50505050509750600560008a81526020019081526020016000206001018054600181600116156101000203166002900480601f016020809104026020016040519081016040528092919081815260200182805460018160011615610100020316600290048015614d9c5780601f10614d7157610100808354040283529160200191614d9c565b820191906000526020600020905b815481529060010190602001808311614d7f57829003601f168201915b50505050509650600560008a8152602001908152602001600020600201549550600560008a81526020019081526020016000206003018054600181600116156101000203166002900480601f016020809104026020016040519081016040528092919081815260200182805460018160011615610100020316600290048015614e665780601f10614e3b57610100808354040283529160200191614e66565b820191906000526020600020905b815481529060010190602001808311614e4957829003601f168201915b50505050509450600560008a81526020019081526020016000206004018054600181600116156101000203166002900480601f016020809104026020016040519081016040528092919081815260200182805460018160011615610100020316600290048015614f175780601f10614eec57610100808354040283529160200191614f17565b820191906000526020600020905b815481529060010190602001808311614efa57829003601f168201915b50505050509350600560008a81526020019081526020016000206005018054600181600116156101000203166002900480601f016020809104026020016040519081016040528092919081815260200182805460018160011615610100020316600290048015614fc85780601f10614f9d57610100808354040283529160200191614fc8565b820191906000526020600020905b815481529060010190602001808311614fab57829003601f168201915b50505050509250600560008a8152602001908152602001600020600601549150600560008a81526020019081526020016000206007018054600181600116156101000203166002900480601f0160208091040260200160405190810160405280929190818152602001828054600181600116156101000203166002900480156150925780601f1061506757610100808354040283529160200191615092565b820191906000526020600020905b81548152906001019060200180831161507557829003601f168201915b50505050509050919395975091939597565b6000600a6000838152602001908152602001600020805490509050919050565b828054600181600116156101000203166002900490600052602060002090601f016020900481019282601f1061510557805160ff1916838001178555615133565b82800160010185558215615133579182015b82811115615132578251825591602001919060010190615117565b5b5090506151409190615144565b5090565b61516691905b8082111561516257600081600090555060010161514a565b5090565b9056fea165627a7a72305820655778c69f7263f655229ca34afd5cb8cbcaf2eb901fb6f89f62f7c1fe05536d0029",
  "source": "pragma solidity ^0.5.0;\n\n\ncontract FVS {\n\n  //declaring state variables\n  address admin;\n  uint public  month = 720 hours;\n  uint public currentTime = now;\n  //creating contructors\n  constructor() public {\n    admin = msg.sender;\n  }\n  //creating modifier for owner only\n  modifier only_owner(){\n        require(msg.sender == admin);\n        _;\n    }\n  //create mapping for storing the count of each batch id\n  mapping(uint => uint) public NOPcount;\n\n  //create mapping for soldorNot\n  mapping(uint => uint) public soldORnot; \n\n  //creating structure to add the details of raw material dealers\n  struct rawDealer{\n    string companyName;\n    string email;\n    uint phone;\n    string companyAddress;\n    string state;\n    string place;\n    uint pincode;\n    string licenceNo;\n  }\n  //create mapping for the raw material dealers using company id\n  mapping(uint => rawDealer) public rawDealerDetail;\n\n  //function to insert the raw material dealers details\n  function setRawdealer(uint _companyID, string memory _companyName, string memory _email, uint _phone, string memory _companyAddress, string memory _state, string memory _place, uint _pincode, string memory _licenceNo) public only_owner returns (bool) {\n    rawDealerDetail[_companyID] = rawDealer(_companyName, _email, _phone, _companyAddress, _state, _place, _pincode, _licenceNo);\n  }\n\n  //function to view the raw material dealers details\n  function getRawdealer(uint _companyID) public view returns (string memory _companyName, string memory _email, uint _phone, string memory _companyAddress, string memory _state, string memory _place, uint _pincode, string memory _licenceNo){\n\n    _companyName = rawDealerDetail[_companyID].companyName;\n    _email = rawDealerDetail[_companyID].email;\n    _phone = rawDealerDetail[_companyID].phone;\n    _companyAddress = rawDealerDetail[_companyID].companyAddress;\n    _state = rawDealerDetail[_companyID].state;\n    _place = rawDealerDetail[_companyID].place;\n    _pincode = rawDealerDetail[_companyID].pincode;\n    _licenceNo = rawDealerDetail[_companyID].licenceNo;\n\n  }\n\n  //creating strcuture for the manufaturer\n  struct manufacturer{\n\n    string companyName;\n    string email;\n    uint phone;\n    string companyAddress;\n    string state;\n    string place;\n    uint pincode;\n    string licenceNo;\n\n  }\n\n  //creating mapping for manufacturer\n  mapping(uint => manufacturer) public manufacturerDetail;\n\n  //function to add manufacturer details\n  function setManufacturer(uint _companyID, string memory _companyName, string memory _email, uint _phone, string memory _companyAddress, string memory _state, string memory _place, uint _pincode, string memory _licenceNo) public only_owner returns (bool){\n   manufacturerDetail[_companyID] = manufacturer(_companyName, _email, _phone, _companyAddress, _state, _place, _pincode, _licenceNo);\n\n  }\n\n  //function to view the manufacturer details\n  function getManufacturer(uint _companyID) public view returns (string memory _companyName, string memory _email, uint _phone, string memory _companyAddress, string memory _state, string memory _place, uint _pincode, string memory _licenceNo){\n    _companyName = manufacturerDetail[_companyID].companyName;\n    _email = manufacturerDetail[_companyID].email;\n    _phone = manufacturerDetail[_companyID].phone;\n    _companyAddress = manufacturerDetail[_companyID].companyAddress;\n    _state = manufacturerDetail[_companyID].state;\n    _place = manufacturerDetail[_companyID].place;\n    _pincode = manufacturerDetail[_companyID].pincode;\n    _licenceNo = manufacturerDetail[_companyID].licenceNo;\n  }\n\n  //creating structure for seller\n  struct seller{\n    string sellerName;\n    string email;\n    uint phone;\n    string sellerAddress;\n    string state;\n    string place;\n    uint pincode;\n    string licenceNo;\n\n  }\n  //creating mapping for seller\n  mapping(uint => seller) public sellerDetail;\n\n  //function to add the seller\n  function setSeller(uint _sellerID, string memory _sellerName, string memory _email, uint _phone, string memory _sellerAddress, string memory _state, string memory _place, uint _pincode, string memory _licenceNo) public only_owner returns (bool) {\n    sellerDetail[_sellerID] = seller(_sellerName, _email, _phone, _sellerAddress, _state, _place, _pincode, _licenceNo);\n  }\n\n  //function to view the seller details\n  function getSeller(uint _sellerID) public view returns (string memory _sellerName, string memory _email, uint _phone, string memory _sellerAddress, string memory _state, string memory _place, uint _pincode, string memory _licenceNo){\n\n   _sellerName = sellerDetail[_sellerID].sellerName;\n    _email = sellerDetail[_sellerID].email;\n    _phone = sellerDetail[_sellerID].phone;\n    _sellerAddress = sellerDetail[_sellerID].sellerAddress;\n    _state = sellerDetail[_sellerID].state;\n    _place = sellerDetail[_sellerID].place;\n    _pincode = sellerDetail[_sellerID].pincode;\n    _licenceNo = sellerDetail[_sellerID].licenceNo; \n  }\n\n  //structure to add the raw material details\n  struct rawMaterial{\n    uint materialID;\n    string materialName;\n    uint quantity;\n    uint numberOfProducts;\n    string productName;\n    string companyName;\n    uint purchaseDate;\n    uint validtill;\n    uint expirayDate;\n  }\n\n  //array mapping to add the rawmaterial in a batchid\n  mapping(uint => rawMaterial[]) public rawMaterialsDetail;\n\n  //function to add the raw materials to array\n  function setRawMaterial(uint _batch, uint _materialID, string memory _materialName, uint _quantity, uint _numberOfProducts, string memory _productName, string memory _companyName, uint _purchaseDate, uint _validtill, uint _expirayDate) public {\n        _purchaseDate = now;\n        _validtill = month * _validtill;\n        _expirayDate = now + _validtill;\n        rawMaterialsDetail[_batch].push(rawMaterial(_materialID, _materialName, _quantity, _numberOfProducts, _productName, _companyName, _purchaseDate, _validtill, _expirayDate));\n    }\n\n  //function to get the lenght of the array of a batch\n    function getLen(uint _batch) public view returns (uint _len) {\n        _len = rawMaterialsDetail[_batch].length;\n    }\n\n  //structure to add the products by the manufactrer\n  struct products{\n    string productName;\n    uint quantity;\n    string companyName;\n    uint MRP;\n    uint expireInMonths;\n    uint MFD;\n    uint EXP;\n    uint batch;\n  }\n\n  // array mapping to add the products\n    mapping(uint => products) public productDetail;\n    mapping(uint => uint[]) public batchOfproducts;\n    \n    // mapping(uint => mapping(uint => productDetail)) batchOfproducts;\n\n    \n    \n    // creating modifier for adding products\n    modifier adding_products(uint _batch){\n        _;\n        require (NOPcount[_batch] <= rawMaterialsDetail[_batch][0].numberOfProducts && now < rawMaterialsDetail[_batch][0].expirayDate);\n        \n        }\n    \n    uint public MAXcount;\n    uint public EXPdate;\n\n    //function to get the lenght of the array of a batchOfproducts\n    function getLenOfproduct(uint _batch) public view returns (uint _len) {\n        _len = batchOfproducts[_batch].length;\n    }\n\n  //function to add the products\n  function setProducts(uint _productID, string memory _productName, uint _quantity, string memory _companyName, uint _MRP, uint _expireInMonths, uint _MFD, uint _EXP, uint _batch) public adding_products(_batch){\n        _MFD = now;\n        _expireInMonths = month * _expireInMonths;\n        _EXP = now + _expireInMonths;\n        \n        MAXcount = rawMaterialsDetail[_batch][0].numberOfProducts;\n        EXPdate = rawMaterialsDetail[_batch][0].expirayDate;\n        //uint CRNTcount = NOPcount[_batch];\n        //require (CRNTcount <= MAXcount && _MFD < EXPdate);\n        //require (NOPcount[_batch] <= rawMaterialsDetail[_batch][0].numberOfProducts && now < rawMaterialsDetail[_batch][0].expirayDate);\n        \n        productDetail[_productID] = products(_productName, _quantity, _companyName, _MRP, _expireInMonths, _MFD, _EXP, _batch);\n        batchOfproducts[_batch].push(_productID);\n        \n        NOPcount[_batch] += 1;\n    }\n\n    //structure for the billing\n    struct billing{\n      string shopID;\n      uint purchaseDate;\n      uint productID;\n    }\n\n    //mapping of billing\n    mapping(uint => billing[]) public billed;\n\n    //function to get the lenght of the array of a billed\n    function getLenOfbilled(uint _billID) public view returns (uint _len) {\n        _len = billed[_billID].length;\n    }\n\n  modifier billing_products(uint _productID){\n        \n        require (soldORnot[_productID] == 0 && now < productDetail[_productID].EXP);\n        _;\n        \n        }\n    //function to insert the billing details\n    function setbill(uint _billID, string memory _shopID, uint _purchaseDate, uint _productID) public billing_products(_productID) returns (bool){\n      _purchaseDate = now;\n      billed[_billID].push(billing(_shopID, _purchaseDate, _productID));\n      soldORnot[_productID] = 1;\n      return true;\n    }\n}\n\n",
  "sourcePath": "/home/akshaymuralidharan/Documents/Desktop/CED/Truffle/KBA Project/FVS/contracts/FVS.sol",
  "compiler": {
    "name": "solc",
    "version": "0.5.0+commit.1d4f565a.Emscripten.clang"
  },
  "schemaVersion": "3.0.9",
  "updatedAt": "2019-05-30T10:21:21.778Z",
  "devdoc": {
    "methods": {}
  },
  "userdoc": {
    "methods": {}
  }
}