{
  "contractName": "FVS",
  "abi": [
    {
      "constant": true,
      "inputs": [
        {
          "name": "",
          "type": "uint256"
        },
        {
          "name": "",
          "type": "uint256"
        }
      ],
      "name": "rawMaterialsDetail",
      "outputs": [
        {
          "name": "materialID",
          "type": "uint256"
        },
        {
          "name": "materialName",
          "type": "string"
        },
        {
          "name": "quantity",
          "type": "uint256"
        },
        {
          "name": "numberOfProducts",
          "type": "uint256"
        },
        {
          "name": "productName",
          "type": "string"
        },
        {
          "name": "companyName",
          "type": "string"
        },
        {
          "name": "purchaseDate",
          "type": "uint256"
        },
        {
          "name": "validtill",
          "type": "uint256"
        },
        {
          "name": "expirayDate",
          "type": "uint256"
        }
      ],
      "payable": false,
      "stateMutability": "view",
      "type": "function"
    },
    {
      "constant": true,
      "inputs": [
        {
          "name": "",
          "type": "uint256"
        }
      ],
      "name": "manufacturerDetail",
      "outputs": [
        {
          "name": "companyName",
          "type": "string"
        },
        {
          "name": "email",
          "type": "string"
        },
        {
          "name": "phone",
          "type": "uint256"
        },
        {
          "name": "companyAddress",
          "type": "string"
        },
        {
          "name": "state",
          "type": "string"
        },
        {
          "name": "place",
          "type": "string"
        },
        {
          "name": "pincode",
          "type": "uint256"
        },
        {
          "name": "licenceNo",
          "type": "string"
        }
      ],
      "payable": false,
      "stateMutability": "view",
      "type": "function"
    },
    {
      "constant": true,
      "inputs": [
        {
          "name": "",
          "type": "uint256"
        }
      ],
      "name": "rawDealerDetail",
      "outputs": [
        {
          "name": "companyName",
          "type": "string"
        },
        {
          "name": "email",
          "type": "string"
        },
        {
          "name": "phone",
          "type": "uint256"
        },
        {
          "name": "companyAddress",
          "type": "string"
        },
        {
          "name": "state",
          "type": "string"
        },
        {
          "name": "place",
          "type": "string"
        },
        {
          "name": "pincode",
          "type": "uint256"
        },
        {
          "name": "licenceNo",
          "type": "string"
        }
      ],
      "payable": false,
      "stateMutability": "view",
      "type": "function"
    },
    {
      "constant": true,
      "inputs": [],
      "name": "month",
      "outputs": [
        {
          "name": "",
          "type": "uint256"
        }
      ],
      "payable": false,
      "stateMutability": "view",
      "type": "function"
    },
    {
      "constant": true,
      "inputs": [
        {
          "name": "",
          "type": "uint256"
        }
      ],
      "name": "sellerDetail",
      "outputs": [
        {
          "name": "sellerName",
          "type": "string"
        },
        {
          "name": "email",
          "type": "string"
        },
        {
          "name": "phone",
          "type": "uint256"
        },
        {
          "name": "sellerAddress",
          "type": "string"
        },
        {
          "name": "state",
          "type": "string"
        },
        {
          "name": "place",
          "type": "string"
        },
        {
          "name": "pincode",
          "type": "uint256"
        },
        {
          "name": "licenceNo",
          "type": "string"
        }
      ],
      "payable": false,
      "stateMutability": "view",
      "type": "function"
    },
    {
      "inputs": [],
      "payable": false,
      "stateMutability": "nonpayable",
      "type": "constructor"
    },
    {
      "constant": false,
      "inputs": [
        {
          "name": "_companyID",
          "type": "uint256"
        },
        {
          "name": "_companyName",
          "type": "string"
        },
        {
          "name": "_email",
          "type": "string"
        },
        {
          "name": "_phone",
          "type": "uint256"
        },
        {
          "name": "_companyAddress",
          "type": "string"
        },
        {
          "name": "_state",
          "type": "string"
        },
        {
          "name": "_place",
          "type": "string"
        },
        {
          "name": "_pincode",
          "type": "uint256"
        },
        {
          "name": "_licenceNo",
          "type": "string"
        }
      ],
      "name": "setRawdealer",
      "outputs": [
        {
          "name": "",
          "type": "bool"
        }
      ],
      "payable": false,
      "stateMutability": "nonpayable",
      "type": "function"
    },
    {
      "constant": true,
      "inputs": [
        {
          "name": "_companyID",
          "type": "uint256"
        }
      ],
      "name": "getRawdealer",
      "outputs": [
        {
          "name": "_companyName",
          "type": "string"
        },
        {
          "name": "_email",
          "type": "string"
        },
        {
          "name": "_phone",
          "type": "uint256"
        },
        {
          "name": "_companyAddress",
          "type": "string"
        },
        {
          "name": "_state",
          "type": "string"
        },
        {
          "name": "_place",
          "type": "string"
        },
        {
          "name": "_pincode",
          "type": "uint256"
        },
        {
          "name": "_licenceNo",
          "type": "string"
        }
      ],
      "payable": false,
      "stateMutability": "view",
      "type": "function"
    },
    {
      "constant": false,
      "inputs": [
        {
          "name": "_companyID",
          "type": "uint256"
        },
        {
          "name": "_companyName",
          "type": "string"
        },
        {
          "name": "_email",
          "type": "string"
        },
        {
          "name": "_phone",
          "type": "uint256"
        },
        {
          "name": "_companyAddress",
          "type": "string"
        },
        {
          "name": "_state",
          "type": "string"
        },
        {
          "name": "_place",
          "type": "string"
        },
        {
          "name": "_pincode",
          "type": "uint256"
        },
        {
          "name": "_licenceNo",
          "type": "string"
        }
      ],
      "name": "setManufacturer",
      "outputs": [
        {
          "name": "",
          "type": "bool"
        }
      ],
      "payable": false,
      "stateMutability": "nonpayable",
      "type": "function"
    },
    {
      "constant": true,
      "inputs": [
        {
          "name": "_companyID",
          "type": "uint256"
        }
      ],
      "name": "getManufacturer",
      "outputs": [
        {
          "name": "_companyName",
          "type": "string"
        },
        {
          "name": "_email",
          "type": "string"
        },
        {
          "name": "_phone",
          "type": "uint256"
        },
        {
          "name": "_companyAddress",
          "type": "string"
        },
        {
          "name": "_state",
          "type": "string"
        },
        {
          "name": "_place",
          "type": "string"
        },
        {
          "name": "_pincode",
          "type": "uint256"
        },
        {
          "name": "_licenceNo",
          "type": "string"
        }
      ],
      "payable": false,
      "stateMutability": "view",
      "type": "function"
    },
    {
      "constant": false,
      "inputs": [
        {
          "name": "_sellerID",
          "type": "uint256"
        },
        {
          "name": "_sellerName",
          "type": "string"
        },
        {
          "name": "_email",
          "type": "string"
        },
        {
          "name": "_phone",
          "type": "uint256"
        },
        {
          "name": "_sellerAddress",
          "type": "string"
        },
        {
          "name": "_state",
          "type": "string"
        },
        {
          "name": "_place",
          "type": "string"
        },
        {
          "name": "_pincode",
          "type": "uint256"
        },
        {
          "name": "_licenceNo",
          "type": "string"
        }
      ],
      "name": "setSeller",
      "outputs": [
        {
          "name": "",
          "type": "bool"
        }
      ],
      "payable": false,
      "stateMutability": "nonpayable",
      "type": "function"
    },
    {
      "constant": true,
      "inputs": [
        {
          "name": "_sellerID",
          "type": "uint256"
        }
      ],
      "name": "getSeller",
      "outputs": [
        {
          "name": "_sellerName",
          "type": "string"
        },
        {
          "name": "_email",
          "type": "string"
        },
        {
          "name": "_phone",
          "type": "uint256"
        },
        {
          "name": "_sellerAddress",
          "type": "string"
        },
        {
          "name": "_state",
          "type": "string"
        },
        {
          "name": "_place",
          "type": "string"
        },
        {
          "name": "_pincode",
          "type": "uint256"
        },
        {
          "name": "_licenceNo",
          "type": "string"
        }
      ],
      "payable": false,
      "stateMutability": "view",
      "type": "function"
    },
    {
      "constant": false,
      "inputs": [
        {
          "name": "_batch",
          "type": "uint256"
        },
        {
          "name": "_materialID",
          "type": "uint256"
        },
        {
          "name": "_materialName",
          "type": "string"
        },
        {
          "name": "_quantity",
          "type": "uint256"
        },
        {
          "name": "_numberOfProducts",
          "type": "uint256"
        },
        {
          "name": "_productName",
          "type": "string"
        },
        {
          "name": "_companyName",
          "type": "string"
        },
        {
          "name": "_purchaseDate",
          "type": "uint256"
        },
        {
          "name": "_validtill",
          "type": "uint256"
        },
        {
          "name": "_expirayDate",
          "type": "uint256"
        }
      ],
      "name": "setRawMaterial",
      "outputs": [],
      "payable": false,
      "stateMutability": "nonpayable",
      "type": "function"
    },
    {
      "constant": true,
      "inputs": [
        {
          "name": "_batch",
          "type": "uint256"
        }
      ],
      "name": "getLen",
      "outputs": [
        {
          "name": "_len",
          "type": "uint256"
        }
      ],
      "payable": false,
      "stateMutability": "view",
      "type": "function"
    }
  ],
  "bytecode": "0x608060405262278d0060015534801561001757600080fd5b50336000806101000a81548173ffffffffffffffffffffffffffffffffffffffff021916908373ffffffffffffffffffffffffffffffffffffffff1602179055506143f7806100676000396000f3fe6080604052600436106100c5576000357c0100000000000000000000000000000000000000000000000000000000900463ffffffff168063143bd0b8146100ca57806331059ff9146104bc578063412919081461067c5780636db3d1ed1461095a578063702921f514610c3857806375d8ec4514610c635780637af7497814610cb2578063aabd4fd4146110a4578063adf78f7814611496578063af88f75c146116d3578063b527fb79146119b1578063d6a9de5114611c8f578063f188aa0814611f6d575b600080fd5b3480156100d657600080fd5b506104a260048036036101208110156100ee57600080fd5b81019080803590602001909291908035906020019064010000000081111561011557600080fd5b82018360208201111561012757600080fd5b8035906020019184600183028401116401000000008311171561014957600080fd5b91908080601f016020809104026020016040519081016040528093929190818152602001838380828437600081840152601f19601f820116905080830192505050505050509192919290803590602001906401000000008111156101ac57600080fd5b8201836020820111156101be57600080fd5b803590602001918460018302840111640100000000831117156101e057600080fd5b91908080601f016020809104026020016040519081016040528093929190818152602001838380828437600081840152601f19601f820116905080830192505050505050509192919290803590602001909291908035906020019064010000000081111561024d57600080fd5b82018360208201111561025f57600080fd5b8035906020019184600183028401116401000000008311171561028157600080fd5b91908080601f016020809104026020016040519081016040528093929190818152602001838380828437600081840152601f19601f820116905080830192505050505050509192919290803590602001906401000000008111156102e457600080fd5b8201836020820111156102f657600080fd5b8035906020019184600183028401116401000000008311171561031857600080fd5b91908080601f016020809104026020016040519081016040528093929190818152602001838380828437600081840152601f19601f8201169050808301925050505050505091929192908035906020019064010000000081111561037b57600080fd5b82018360208201111561038d57600080fd5b803590602001918460018302840111640100000000831117156103af57600080fd5b91908080601f016020809104026020016040519081016040528093929190818152602001838380828437600081840152601f19601f820116905080830192505050505050509192919290803590602001909291908035906020019064010000000081111561041c57600080fd5b82018360208201111561042e57600080fd5b8035906020019184600183028401116401000000008311171561045057600080fd5b91908080601f016020809104026020016040519081016040528093929190818152602001838380828437600081840152601f19601f82011690508083019250505050505050919291929050505061224b565b604051808215151515815260200191505060405180910390f35b3480156104c857600080fd5b506104ff600480360360408110156104df57600080fd5b8101908080359060200190929190803590602001909291905050506123c8565b604051808a815260200180602001898152602001888152602001806020018060200187815260200186815260200185815260200184810384528c818151815260200191508051906020019080838360005b8381101561056b578082015181840152602081019050610550565b50505050905090810190601f1680156105985780820380516001836020036101000a031916815260200191505b50848103835289818151815260200191508051906020019080838360005b838110156105d15780820151818401526020810190506105b6565b50505050905090810190601f1680156105fe5780820380516001836020036101000a031916815260200191505b50848103825288818151815260200191508051906020019080838360005b8381101561063757808201518184015260208101905061061c565b50505050905090810190601f1680156106645780820380516001836020036101000a031916815260200191505b509c5050505050505050505050505060405180910390f35b34801561068857600080fd5b506106b56004803603602081101561069f57600080fd5b81019080803590602001909291905050506125fa565b6040518080602001806020018981526020018060200180602001806020018881526020018060200187810387528f818151815260200191508051906020019080838360005b838110156107155780820151818401526020810190506106fa565b50505050905090810190601f1680156107425780820380516001836020036101000a031916815260200191505b5087810386528e818151815260200191508051906020019080838360005b8381101561077b578082015181840152602081019050610760565b50505050905090810190601f1680156107a85780820380516001836020036101000a031916815260200191505b5087810385528c818151815260200191508051906020019080838360005b838110156107e15780820151818401526020810190506107c6565b50505050905090810190601f16801561080e5780820380516001836020036101000a031916815260200191505b5087810384528b818151815260200191508051906020019080838360005b8381101561084757808201518184015260208101905061082c565b50505050905090810190601f1680156108745780820380516001836020036101000a031916815260200191505b5087810383528a818151815260200191508051906020019080838360005b838110156108ad578082015181840152602081019050610892565b50505050905090810190601f1680156108da5780820380516001836020036101000a031916815260200191505b50878103825288818151815260200191508051906020019080838360005b838110156109135780820151818401526020810190506108f8565b50505050905090810190601f1680156109405780820380516001836020036101000a031916815260200191505b509e50505050505050505050505050505060405180910390f35b34801561096657600080fd5b506109936004803603602081101561097d57600080fd5b81019080803590602001909291905050506129d2565b6040518080602001806020018981526020018060200180602001806020018881526020018060200187810387528f818151815260200191508051906020019080838360005b838110156109f35780820151818401526020810190506109d8565b50505050905090810190601f168015610a205780820380516001836020036101000a031916815260200191505b5087810386528e818151815260200191508051906020019080838360005b83811015610a59578082015181840152602081019050610a3e565b50505050905090810190601f168015610a865780820380516001836020036101000a031916815260200191505b5087810385528c818151815260200191508051906020019080838360005b83811015610abf578082015181840152602081019050610aa4565b50505050905090810190601f168015610aec5780820380516001836020036101000a031916815260200191505b5087810384528b818151815260200191508051906020019080838360005b83811015610b25578082015181840152602081019050610b0a565b50505050905090810190601f168015610b525780820380516001836020036101000a031916815260200191505b5087810383528a818151815260200191508051906020019080838360005b83811015610b8b578082015181840152602081019050610b70565b50505050905090810190601f168015610bb85780820380516001836020036101000a031916815260200191505b50878103825288818151815260200191508051906020019080838360005b83811015610bf1578082015181840152602081019050610bd6565b50505050905090810190601f168015610c1e5780820380516001836020036101000a031916815260200191505b509e50505050505050505050505050505060405180910390f35b348015610c4457600080fd5b50610c4d612daa565b6040518082815260200191505060405180910390f35b348015610c6f57600080fd5b50610c9c60048036036020811015610c8657600080fd5b8101908080359060200190929190505050612db0565b6040518082815260200191505060405180910390f35b348015610cbe57600080fd5b5061108a6004803603610120811015610cd657600080fd5b810190808035906020019092919080359060200190640100000000811115610cfd57600080fd5b820183602082011115610d0f57600080fd5b80359060200191846001830284011164010000000083111715610d3157600080fd5b91908080601f016020809104026020016040519081016040528093929190818152602001838380828437600081840152601f19601f82011690508083019250505050505050919291929080359060200190640100000000811115610d9457600080fd5b820183602082011115610da657600080fd5b80359060200191846001830284011164010000000083111715610dc857600080fd5b91908080601f016020809104026020016040519081016040528093929190818152602001838380828437600081840152601f19601f8201169050808301925050505050505091929192908035906020019092919080359060200190640100000000811115610e3557600080fd5b820183602082011115610e4757600080fd5b80359060200191846001830284011164010000000083111715610e6957600080fd5b91908080601f016020809104026020016040519081016040528093929190818152602001838380828437600081840152601f19601f82011690508083019250505050505050919291929080359060200190640100000000811115610ecc57600080fd5b820183602082011115610ede57600080fd5b80359060200191846001830284011164010000000083111715610f0057600080fd5b91908080601f016020809104026020016040519081016040528093929190818152602001838380828437600081840152601f19601f82011690508083019250505050505050919291929080359060200190640100000000811115610f6357600080fd5b820183602082011115610f7557600080fd5b80359060200191846001830284011164010000000083111715610f9757600080fd5b91908080601f016020809104026020016040519081016040528093929190818152602001838380828437600081840152601f19601f820116905080830192505050505050509192919290803590602001909291908035906020019064010000000081111561100457600080fd5b82018360208201111561101657600080fd5b8035906020019184600183028401116401000000008311171561103857600080fd5b91908080601f016020809104026020016040519081016040528093929190818152602001838380828437600081840152601f19601f820116905080830192505050505050509192919290505050612dd0565b604051808215151515815260200191505060405180910390f35b3480156110b057600080fd5b5061147c60048036036101208110156110c857600080fd5b8101908080359060200190929190803590602001906401000000008111156110ef57600080fd5b82018360208201111561110157600080fd5b8035906020019184600183028401116401000000008311171561112357600080fd5b91908080601f016020809104026020016040519081016040528093929190818152602001838380828437600081840152601f19601f8201169050808301925050505050505091929192908035906020019064010000000081111561118657600080fd5b82018360208201111561119857600080fd5b803590602001918460018302840111640100000000831117156111ba57600080fd5b91908080601f016020809104026020016040519081016040528093929190818152602001838380828437600081840152601f19601f820116905080830192505050505050509192919290803590602001909291908035906020019064010000000081111561122757600080fd5b82018360208201111561123957600080fd5b8035906020019184600183028401116401000000008311171561125b57600080fd5b91908080601f016020809104026020016040519081016040528093929190818152602001838380828437600081840152601f19601f820116905080830192505050505050509192919290803590602001906401000000008111156112be57600080fd5b8201836020820111156112d057600080fd5b803590602001918460018302840111640100000000831117156112f257600080fd5b91908080601f016020809104026020016040519081016040528093929190818152602001838380828437600081840152601f19601f8201169050808301925050505050505091929192908035906020019064010000000081111561135557600080fd5b82018360208201111561136757600080fd5b8035906020019184600183028401116401000000008311171561138957600080fd5b91908080601f016020809104026020016040519081016040528093929190818152602001838380828437600081840152601f19601f82011690508083019250505050505050919291929080359060200190929190803590602001906401000000008111156113f657600080fd5b82018360208201111561140857600080fd5b8035906020019184600183028401116401000000008311171561142a57600080fd5b91908080601f016020809104026020016040519081016040528093929190818152602001838380828437600081840152601f19601f820116905080830192505050505050509192919290505050612f4d565b604051808215151515815260200191505060405180910390f35b3480156114a257600080fd5b506116d160048036036101408110156114ba57600080fd5b810190808035906020019092919080359060200190929190803590602001906401000000008111156114eb57600080fd5b8201836020820111156114fd57600080fd5b8035906020019184600183028401116401000000008311171561151f57600080fd5b91908080601f016020809104026020016040519081016040528093929190818152602001838380828437600081840152601f19601f82011690508083019250505050505050919291929080359060200190929190803590602001909291908035906020019064010000000081111561159657600080fd5b8201836020820111156115a857600080fd5b803590602001918460018302840111640100000000831117156115ca57600080fd5b91908080601f016020809104026020016040519081016040528093929190818152602001838380828437600081840152601f19601f8201169050808301925050505050505091929192908035906020019064010000000081111561162d57600080fd5b82018360208201111561163f57600080fd5b8035906020019184600183028401116401000000008311171561166157600080fd5b91908080601f016020809104026020016040519081016040528093929190818152602001838380828437600081840152601f19601f8201169050808301925050505050505091929192908035906020019092919080359060200190929190803590602001909291905050506130ca565b005b3480156116df57600080fd5b5061170c600480360360208110156116f657600080fd5b81019080803590602001909291905050506131fb565b6040518080602001806020018981526020018060200180602001806020018881526020018060200187810387528f818151815260200191508051906020019080838360005b8381101561176c578082015181840152602081019050611751565b50505050905090810190601f1680156117995780820380516001836020036101000a031916815260200191505b5087810386528e818151815260200191508051906020019080838360005b838110156117d25780820151818401526020810190506117b7565b50505050905090810190601f1680156117ff5780820380516001836020036101000a031916815260200191505b5087810385528c818151815260200191508051906020019080838360005b8381101561183857808201518184015260208101905061181d565b50505050905090810190601f1680156118655780820380516001836020036101000a031916815260200191505b5087810384528b818151815260200191508051906020019080838360005b8381101561189e578082015181840152602081019050611883565b50505050905090810190601f1680156118cb5780820380516001836020036101000a031916815260200191505b5087810383528a818151815260200191508051906020019080838360005b838110156119045780820151818401526020810190506118e9565b50505050905090810190601f1680156119315780820380516001836020036101000a031916815260200191505b50878103825288818151815260200191508051906020019080838360005b8381101561196a57808201518184015260208101905061194f565b50505050905090810190601f1680156119975780820380516001836020036101000a031916815260200191505b509e50505050505050505050505050505060405180910390f35b3480156119bd57600080fd5b506119ea600480360360208110156119d457600080fd5b81019080803590602001909291905050506135d3565b6040518080602001806020018981526020018060200180602001806020018881526020018060200187810387528f818151815260200191508051906020019080838360005b83811015611a4a578082015181840152602081019050611a2f565b50505050905090810190601f168015611a775780820380516001836020036101000a031916815260200191505b5087810386528e818151815260200191508051906020019080838360005b83811015611ab0578082015181840152602081019050611a95565b50505050905090810190601f168015611add5780820380516001836020036101000a031916815260200191505b5087810385528c818151815260200191508051906020019080838360005b83811015611b16578082015181840152602081019050611afb565b50505050905090810190601f168015611b435780820380516001836020036101000a031916815260200191505b5087810384528b818151815260200191508051906020019080838360005b83811015611b7c578082015181840152602081019050611b61565b50505050905090810190601f168015611ba95780820380516001836020036101000a031916815260200191505b5087810383528a818151815260200191508051906020019080838360005b83811015611be2578082015181840152602081019050611bc7565b50505050905090810190601f168015611c0f5780820380516001836020036101000a031916815260200191505b50878103825288818151815260200191508051906020019080838360005b83811015611c48578082015181840152602081019050611c2d565b50505050905090810190601f168015611c755780820380516001836020036101000a031916815260200191505b509e50505050505050505050505050505060405180910390f35b348015611c9b57600080fd5b50611cc860048036036020811015611cb257600080fd5b8101908080359060200190929190505050613a44565b6040518080602001806020018981526020018060200180602001806020018881526020018060200187810387528f818151815260200191508051906020019080838360005b83811015611d28578082015181840152602081019050611d0d565b50505050905090810190601f168015611d555780820380516001836020036101000a031916815260200191505b5087810386528e818151815260200191508051906020019080838360005b83811015611d8e578082015181840152602081019050611d73565b50505050905090810190601f168015611dbb5780820380516001836020036101000a031916815260200191505b5087810385528c818151815260200191508051906020019080838360005b83811015611df4578082015181840152602081019050611dd9565b50505050905090810190601f168015611e215780820380516001836020036101000a031916815260200191505b5087810384528b818151815260200191508051906020019080838360005b83811015611e5a578082015181840152602081019050611e3f565b50505050905090810190601f168015611e875780820380516001836020036101000a031916815260200191505b5087810383528a818151815260200191508051906020019080838360005b83811015611ec0578082015181840152602081019050611ea5565b50505050905090810190601f168015611eed5780820380516001836020036101000a031916815260200191505b50878103825288818151815260200191508051906020019080838360005b83811015611f26578082015181840152602081019050611f0b565b50505050905090810190601f168015611f535780820380516001836020036101000a031916815260200191505b509e50505050505050505050505050505060405180910390f35b348015611f7957600080fd5b50611fa660048036036020811015611f9057600080fd5b8101908080359060200190929190505050613eb5565b6040518080602001806020018981526020018060200180602001806020018881526020018060200187810387528f818151815260200191508051906020019080838360005b83811015612006578082015181840152602081019050611feb565b50505050905090810190601f1680156120335780820380516001836020036101000a031916815260200191505b5087810386528e818151815260200191508051906020019080838360005b8381101561206c578082015181840152602081019050612051565b50505050905090810190601f1680156120995780820380516001836020036101000a031916815260200191505b5087810385528c818151815260200191508051906020019080838360005b838110156120d25780820151818401526020810190506120b7565b50505050905090810190601f1680156120ff5780820380516001836020036101000a031916815260200191505b5087810384528b818151815260200191508051906020019080838360005b8381101561213857808201518184015260208101905061211d565b50505050905090810190601f1680156121655780820380516001836020036101000a031916815260200191505b5087810383528a818151815260200191508051906020019080838360005b8381101561219e578082015181840152602081019050612183565b50505050905090810190601f1680156121cb5780820380516001836020036101000a031916815260200191505b50878103825288818151815260200191508051906020019080838360005b838110156122045780820151818401526020810190506121e9565b50505050905090810190601f1680156122315780820380516001836020036101000a031916815260200191505b509e50505050505050505050505050505060405180910390f35b60008060009054906101000a900473ffffffffffffffffffffffffffffffffffffffff1673ffffffffffffffffffffffffffffffffffffffff163373ffffffffffffffffffffffffffffffffffffffff161415156122a857600080fd5b610100604051908101604052808a815260200189815260200188815260200187815260200186815260200185815260200184815260200183815250600460008c81526020019081526020016000206000820151816000019080519060200190612312929190614326565b50602082015181600101908051906020019061232f929190614326565b50604082015181600201556060820151816003019080519060200190612356929190614326565b506080820151816004019080519060200190612373929190614326565b5060a0820151816005019080519060200190612390929190614326565b5060c0820151816006015560e08201518160070190805190602001906123b7929190614326565b509050509998505050505050505050565b6005602052816000526040600020818154811015156123e357fe5b906000526020600020906009020160009150915050806000015490806001018054600181600116156101000203166002900480601f0160208091040260200160405190810160405280929190818152602001828054600181600116156101000203166002900480156124965780601f1061246b57610100808354040283529160200191612496565b820191906000526020600020905b81548152906001019060200180831161247957829003601f168201915b505050505090806002015490806003015490806004018054600181600116156101000203166002900480601f0160208091040260200160405190810160405280929190818152602001828054600181600116156101000203166002900480156125405780601f1061251557610100808354040283529160200191612540565b820191906000526020600020905b81548152906001019060200180831161252357829003601f168201915b505050505090806005018054600181600116156101000203166002900480601f0160208091040260200160405190810160405280929190818152602001828054600181600116156101000203166002900480156125de5780601f106125b3576101008083540402835291602001916125de565b820191906000526020600020905b8154815290600101906020018083116125c157829003601f168201915b5050505050908060060154908060070154908060080154905089565b6003602052806000526040600020600091509050806000018054600181600116156101000203166002900480601f0160208091040260200160405190810160405280929190818152602001828054600181600116156101000203166002900480156126a65780601f1061267b576101008083540402835291602001916126a6565b820191906000526020600020905b81548152906001019060200180831161268957829003601f168201915b505050505090806001018054600181600116156101000203166002900480601f0160208091040260200160405190810160405280929190818152602001828054600181600116156101000203166002900480156127445780601f1061271957610100808354040283529160200191612744565b820191906000526020600020905b81548152906001019060200180831161272757829003601f168201915b505050505090806002015490806003018054600181600116156101000203166002900480601f0160208091040260200160405190810160405280929190818152602001828054600181600116156101000203166002900480156127e85780601f106127bd576101008083540402835291602001916127e8565b820191906000526020600020905b8154815290600101906020018083116127cb57829003601f168201915b505050505090806004018054600181600116156101000203166002900480601f0160208091040260200160405190810160405280929190818152602001828054600181600116156101000203166002900480156128865780601f1061285b57610100808354040283529160200191612886565b820191906000526020600020905b81548152906001019060200180831161286957829003601f168201915b505050505090806005018054600181600116156101000203166002900480601f0160208091040260200160405190810160405280929190818152602001828054600181600116156101000203166002900480156129245780601f106128f957610100808354040283529160200191612924565b820191906000526020600020905b81548152906001019060200180831161290757829003601f168201915b505050505090806006015490806007018054600181600116156101000203166002900480601f0160208091040260200160405190810160405280929190818152602001828054600181600116156101000203166002900480156129c85780601f1061299d576101008083540402835291602001916129c8565b820191906000526020600020905b8154815290600101906020018083116129ab57829003601f168201915b5050505050905088565b6002602052806000526040600020600091509050806000018054600181600116156101000203166002900480601f016020809104026020016040519081016040528092919081815260200182805460018160011615610100020316600290048015612a7e5780601f10612a5357610100808354040283529160200191612a7e565b820191906000526020600020905b815481529060010190602001808311612a6157829003601f168201915b505050505090806001018054600181600116156101000203166002900480601f016020809104026020016040519081016040528092919081815260200182805460018160011615610100020316600290048015612b1c5780601f10612af157610100808354040283529160200191612b1c565b820191906000526020600020905b815481529060010190602001808311612aff57829003601f168201915b505050505090806002015490806003018054600181600116156101000203166002900480601f016020809104026020016040519081016040528092919081815260200182805460018160011615610100020316600290048015612bc05780601f10612b9557610100808354040283529160200191612bc0565b820191906000526020600020905b815481529060010190602001808311612ba357829003601f168201915b505050505090806004018054600181600116156101000203166002900480601f016020809104026020016040519081016040528092919081815260200182805460018160011615610100020316600290048015612c5e5780601f10612c3357610100808354040283529160200191612c5e565b820191906000526020600020905b815481529060010190602001808311612c4157829003601f168201915b505050505090806005018054600181600116156101000203166002900480601f016020809104026020016040519081016040528092919081815260200182805460018160011615610100020316600290048015612cfc5780601f10612cd157610100808354040283529160200191612cfc565b820191906000526020600020905b815481529060010190602001808311612cdf57829003601f168201915b505050505090806006015490806007018054600181600116156101000203166002900480601f016020809104026020016040519081016040528092919081815260200182805460018160011615610100020316600290048015612da05780601f10612d7557610100808354040283529160200191612da0565b820191906000526020600020905b815481529060010190602001808311612d8357829003601f168201915b5050505050905088565b60015481565b600060056000838152602001908152602001600020805490509050919050565b60008060009054906101000a900473ffffffffffffffffffffffffffffffffffffffff1673ffffffffffffffffffffffffffffffffffffffff163373ffffffffffffffffffffffffffffffffffffffff16141515612e2d57600080fd5b610100604051908101604052808a815260200189815260200188815260200187815260200186815260200185815260200184815260200183815250600360008c81526020019081526020016000206000820151816000019080519060200190612e97929190614326565b506020820151816001019080519060200190612eb4929190614326565b50604082015181600201556060820151816003019080519060200190612edb929190614326565b506080820151816004019080519060200190612ef8929190614326565b5060a0820151816005019080519060200190612f15929190614326565b5060c0820151816006015560e0820151816007019080519060200190612f3c929190614326565b509050509998505050505050505050565b60008060009054906101000a900473ffffffffffffffffffffffffffffffffffffffff1673ffffffffffffffffffffffffffffffffffffffff163373ffffffffffffffffffffffffffffffffffffffff16141515612faa57600080fd5b610100604051908101604052808a815260200189815260200188815260200187815260200186815260200185815260200184815260200183815250600260008c81526020019081526020016000206000820151816000019080519060200190613014929190614326565b506020820151816001019080519060200190613031929190614326565b50604082015181600201556060820151816003019080519060200190613058929190614326565b506080820151816004019080519060200190613075929190614326565b5060a0820151816005019080519060200190613092929190614326565b5060c0820151816006015560e08201518160070190805190602001906130b9929190614326565b509050509998505050505050505050565b429250816001540291508142019050600560008b8152602001908152602001600020610120604051908101604052808b81526020018a8152602001898152602001888152602001878152602001868152602001858152602001848152602001838152509080600181540180825580915050906001820390600052602060002090600902016000909192909190915060008201518160000155602082015181600101908051906020019061317e929190614326565b50604082015181600201556060820151816003015560808201518160040190805190602001906131af929190614326565b5060a08201518160050190805190602001906131cc929190614326565b5060c0820151816006015560e08201518160070155610100820151816008015550505050505050505050505050565b6004602052806000526040600020600091509050806000018054600181600116156101000203166002900480601f0160208091040260200160405190810160405280929190818152602001828054600181600116156101000203166002900480156132a75780601f1061327c576101008083540402835291602001916132a7565b820191906000526020600020905b81548152906001019060200180831161328a57829003601f168201915b505050505090806001018054600181600116156101000203166002900480601f0160208091040260200160405190810160405280929190818152602001828054600181600116156101000203166002900480156133455780601f1061331a57610100808354040283529160200191613345565b820191906000526020600020905b81548152906001019060200180831161332857829003601f168201915b505050505090806002015490806003018054600181600116156101000203166002900480601f0160208091040260200160405190810160405280929190818152602001828054600181600116156101000203166002900480156133e95780601f106133be576101008083540402835291602001916133e9565b820191906000526020600020905b8154815290600101906020018083116133cc57829003601f168201915b505050505090806004018054600181600116156101000203166002900480601f0160208091040260200160405190810160405280929190818152602001828054600181600116156101000203166002900480156134875780601f1061345c57610100808354040283529160200191613487565b820191906000526020600020905b81548152906001019060200180831161346a57829003601f168201915b505050505090806005018054600181600116156101000203166002900480601f0160208091040260200160405190810160405280929190818152602001828054600181600116156101000203166002900480156135255780601f106134fa57610100808354040283529160200191613525565b820191906000526020600020905b81548152906001019060200180831161350857829003601f168201915b505050505090806006015490806007018054600181600116156101000203166002900480601f0160208091040260200160405190810160405280929190818152602001828054600181600116156101000203166002900480156135c95780601f1061359e576101008083540402835291602001916135c9565b820191906000526020600020905b8154815290600101906020018083116135ac57829003601f168201915b5050505050905088565b6060806000606080606060006060600360008a81526020019081526020016000206000018054600181600116156101000203166002900480601f01602080910402602001604051908101604052809291908181526020018280546001816001161561010002031660029004801561368b5780601f106136605761010080835404028352916020019161368b565b820191906000526020600020905b81548152906001019060200180831161366e57829003601f168201915b50505050509750600360008a81526020019081526020016000206001018054600181600116156101000203166002900480601f01602080910402602001604051908101604052809291908181526020018280546001816001161561010002031660029004801561373c5780601f106137115761010080835404028352916020019161373c565b820191906000526020600020905b81548152906001019060200180831161371f57829003601f168201915b50505050509650600360008a8152602001908152602001600020600201549550600360008a81526020019081526020016000206003018054600181600116156101000203166002900480601f0160208091040260200160405190810160405280929190818152602001828054600181600116156101000203166002900480156138065780601f106137db57610100808354040283529160200191613806565b820191906000526020600020905b8154815290600101906020018083116137e957829003601f168201915b50505050509450600360008a81526020019081526020016000206004018054600181600116156101000203166002900480601f0160208091040260200160405190810160405280929190818152602001828054600181600116156101000203166002900480156138b75780601f1061388c576101008083540402835291602001916138b7565b820191906000526020600020905b81548152906001019060200180831161389a57829003601f168201915b50505050509350600360008a81526020019081526020016000206005018054600181600116156101000203166002900480601f0160208091040260200160405190810160405280929190818152602001828054600181600116156101000203166002900480156139685780601f1061393d57610100808354040283529160200191613968565b820191906000526020600020905b81548152906001019060200180831161394b57829003601f168201915b50505050509250600360008a8152602001908152602001600020600601549150600360008a81526020019081526020016000206007018054600181600116156101000203166002900480601f016020809104026020016040519081016040528092919081815260200182805460018160011615610100020316600290048015613a325780601f10613a0757610100808354040283529160200191613a32565b820191906000526020600020905b815481529060010190602001808311613a1557829003601f168201915b50505050509050919395975091939597565b6060806000606080606060006060600460008a81526020019081526020016000206000018054600181600116156101000203166002900480601f016020809104026020016040519081016040528092919081815260200182805460018160011615610100020316600290048015613afc5780601f10613ad157610100808354040283529160200191613afc565b820191906000526020600020905b815481529060010190602001808311613adf57829003601f168201915b50505050509750600460008a81526020019081526020016000206001018054600181600116156101000203166002900480601f016020809104026020016040519081016040528092919081815260200182805460018160011615610100020316600290048015613bad5780601f10613b8257610100808354040283529160200191613bad565b820191906000526020600020905b815481529060010190602001808311613b9057829003601f168201915b50505050509650600460008a8152602001908152602001600020600201549550600460008a81526020019081526020016000206003018054600181600116156101000203166002900480601f016020809104026020016040519081016040528092919081815260200182805460018160011615610100020316600290048015613c775780601f10613c4c57610100808354040283529160200191613c77565b820191906000526020600020905b815481529060010190602001808311613c5a57829003601f168201915b50505050509450600460008a81526020019081526020016000206004018054600181600116156101000203166002900480601f016020809104026020016040519081016040528092919081815260200182805460018160011615610100020316600290048015613d285780601f10613cfd57610100808354040283529160200191613d28565b820191906000526020600020905b815481529060010190602001808311613d0b57829003601f168201915b50505050509350600460008a81526020019081526020016000206005018054600181600116156101000203166002900480601f016020809104026020016040519081016040528092919081815260200182805460018160011615610100020316600290048015613dd95780601f10613dae57610100808354040283529160200191613dd9565b820191906000526020600020905b815481529060010190602001808311613dbc57829003601f168201915b50505050509250600460008a8152602001908152602001600020600601549150600460008a81526020019081526020016000206007018054600181600116156101000203166002900480601f016020809104026020016040519081016040528092919081815260200182805460018160011615610100020316600290048015613ea35780601f10613e7857610100808354040283529160200191613ea3565b820191906000526020600020905b815481529060010190602001808311613e8657829003601f168201915b50505050509050919395975091939597565b6060806000606080606060006060600260008a81526020019081526020016000206000018054600181600116156101000203166002900480601f016020809104026020016040519081016040528092919081815260200182805460018160011615610100020316600290048015613f6d5780601f10613f4257610100808354040283529160200191613f6d565b820191906000526020600020905b815481529060010190602001808311613f5057829003601f168201915b50505050509750600260008a81526020019081526020016000206001018054600181600116156101000203166002900480601f01602080910402602001604051908101604052809291908181526020018280546001816001161561010002031660029004801561401e5780601f10613ff35761010080835404028352916020019161401e565b820191906000526020600020905b81548152906001019060200180831161400157829003601f168201915b50505050509650600260008a8152602001908152602001600020600201549550600260008a81526020019081526020016000206003018054600181600116156101000203166002900480601f0160208091040260200160405190810160405280929190818152602001828054600181600116156101000203166002900480156140e85780601f106140bd576101008083540402835291602001916140e8565b820191906000526020600020905b8154815290600101906020018083116140cb57829003601f168201915b50505050509450600260008a81526020019081526020016000206004018054600181600116156101000203166002900480601f0160208091040260200160405190810160405280929190818152602001828054600181600116156101000203166002900480156141995780601f1061416e57610100808354040283529160200191614199565b820191906000526020600020905b81548152906001019060200180831161417c57829003601f168201915b50505050509350600260008a81526020019081526020016000206005018054600181600116156101000203166002900480601f01602080910402602001604051908101604052809291908181526020018280546001816001161561010002031660029004801561424a5780601f1061421f5761010080835404028352916020019161424a565b820191906000526020600020905b81548152906001019060200180831161422d57829003601f168201915b50505050509250600260008a8152602001908152602001600020600601549150600260008a81526020019081526020016000206007018054600181600116156101000203166002900480601f0160208091040260200160405190810160405280929190818152602001828054600181600116156101000203166002900480156143145780601f106142e957610100808354040283529160200191614314565b820191906000526020600020905b8154815290600101906020018083116142f757829003601f168201915b50505050509050919395975091939597565b828054600181600116156101000203166002900490600052602060002090601f016020900481019282601f1061436757805160ff1916838001178555614395565b82800160010185558215614395579182015b82811115614394578251825591602001919060010190614379565b5b5090506143a291906143a6565b5090565b6143c891905b808211156143c45760008160009055506001016143ac565b5090565b9056fea165627a7a72305820ac17b3be5e85ca9a670f793d9155855ae6a54c02e0c082b868ed7d054243ba850029",
  "source": "pragma solidity ^0.5.0;\n\n\ncontract FVS {\n\n  //declaring state variables\n  address admin;\n  uint public  month = 720 hours;\n  //creating contructors\n  constructor() public {\n    admin = msg.sender;\n  }\n  //creating modifier for owner only\n  modifier only_owner(){\n        require(msg.sender == admin);\n        _;\n    }\n\n  //creating structure to add the details of raw material dealers\n  struct rawDealer{\n    string companyName;\n    string email;\n    uint phone;\n    string companyAddress;\n    string state;\n    string place;\n    uint pincode;\n    string licenceNo;\n  }\n  //create mapping for the raw material dealers using company id\n  mapping(uint => rawDealer) public rawDealerDetail;\n\n  //function to insert the raw material dealers details\n  function setRawdealer(uint _companyID, string memory _companyName, string memory _email, uint _phone, string memory _companyAddress, string memory _state, string memory _place, uint _pincode, string memory _licenceNo) public only_owner returns (bool) {\n    rawDealerDetail[_companyID] = rawDealer(_companyName, _email, _phone, _companyAddress, _state, _place, _pincode, _licenceNo);\n  }\n\n  //function to view the raw material dealers details\n  function getRawdealer(uint _companyID) public view returns (string memory _companyName, string memory _email, uint _phone, string memory _companyAddress, string memory _state, string memory _place, uint _pincode, string memory _licenceNo){\n\n    _companyName = rawDealerDetail[_companyID].companyName;\n    _email = rawDealerDetail[_companyID].email;\n    _phone = rawDealerDetail[_companyID].phone;\n    _companyAddress = rawDealerDetail[_companyID].companyAddress;\n    _state = rawDealerDetail[_companyID].state;\n    _place = rawDealerDetail[_companyID].place;\n    _pincode = rawDealerDetail[_companyID].pincode;\n    _licenceNo = rawDealerDetail[_companyID].licenceNo;\n\n  }\n\n  //creating strcuture for the manufaturer\n  struct manufacturer{\n\n    string companyName;\n    string email;\n    uint phone;\n    string companyAddress;\n    string state;\n    string place;\n    uint pincode;\n    string licenceNo;\n\n  }\n\n  //creating mapping for manufacturer\n  mapping(uint => manufacturer) public manufacturerDetail;\n\n  //function to add manufacturer details\n  function setManufacturer(uint _companyID, string memory _companyName, string memory _email, uint _phone, string memory _companyAddress, string memory _state, string memory _place, uint _pincode, string memory _licenceNo) public only_owner returns (bool){\n   manufacturerDetail[_companyID] = manufacturer(_companyName, _email, _phone, _companyAddress, _state, _place, _pincode, _licenceNo);\n\n  }\n\n  //function to view the manufacturer details\n  function getManufacturer(uint _companyID) public view returns (string memory _companyName, string memory _email, uint _phone, string memory _companyAddress, string memory _state, string memory _place, uint _pincode, string memory _licenceNo){\n    _companyName = manufacturerDetail[_companyID].companyName;\n    _email = manufacturerDetail[_companyID].email;\n    _phone = manufacturerDetail[_companyID].phone;\n    _companyAddress = manufacturerDetail[_companyID].companyAddress;\n    _state = manufacturerDetail[_companyID].state;\n    _place = manufacturerDetail[_companyID].place;\n    _pincode = manufacturerDetail[_companyID].pincode;\n    _licenceNo = manufacturerDetail[_companyID].licenceNo;\n  }\n\n  //creating structure for seller\n  struct seller{\n    string sellerName;\n    string email;\n    uint phone;\n    string sellerAddress;\n    string state;\n    string place;\n    uint pincode;\n    string licenceNo;\n\n  }\n  //creating mapping for seller\n  mapping(uint => seller) public sellerDetail;\n\n  //function to add the seller\n  function setSeller(uint _sellerID, string memory _sellerName, string memory _email, uint _phone, string memory _sellerAddress, string memory _state, string memory _place, uint _pincode, string memory _licenceNo) public only_owner returns (bool) {\n    sellerDetail[_sellerID] = seller(_sellerName, _email, _phone, _sellerAddress, _state, _place, _pincode, _licenceNo);\n  }\n\n  //function to view the seller details\n  function getSeller(uint _sellerID) public view returns (string memory _sellerName, string memory _email, uint _phone, string memory _sellerAddress, string memory _state, string memory _place, uint _pincode, string memory _licenceNo){\n\n   _sellerName = sellerDetail[_sellerID].sellerName;\n    _email = sellerDetail[_sellerID].email;\n    _phone = sellerDetail[_sellerID].phone;\n    _sellerAddress = sellerDetail[_sellerID].sellerAddress;\n    _state = sellerDetail[_sellerID].state;\n    _place = sellerDetail[_sellerID].place;\n    _pincode = sellerDetail[_sellerID].pincode;\n    _licenceNo = sellerDetail[_sellerID].licenceNo; \n  }\n\n  //structure to add the raw material details\n  struct rawMaterial{\n    uint materialID;\n    string materialName;\n    uint quantity;\n    uint numberOfProducts;\n    string productName;\n    string companyName;\n    uint purchaseDate;\n    uint validtill;\n    uint expirayDate;\n  }\n\n  //array mapping to add the rawmaterial in a batchid\n  mapping(uint => rawMaterial[]) public rawMaterialsDetail;\n\n  //function to add the raw materials to array\n  function setRawMaterial(uint _batch, uint _materialID, string memory _materialName, uint _quantity, uint _numberOfProducts, string memory _productName, string memory _companyName, uint _purchaseDate, uint _validtill, uint _expirayDate) public {\n        _purchaseDate = now;\n        _validtill = month * _validtill;\n        _expirayDate = now + _validtill;\n        rawMaterialsDetail[_batch].push(rawMaterial(_materialID, _materialName, _quantity, _numberOfProducts, _productName, _companyName, _purchaseDate, _validtill, _expirayDate));\n    }\n\n  //function to get the lenght of the array of a batch\n    function getLen(uint _batch) public view returns (uint _len) {\n        _len = rawMaterialsDetail[_batch].length;\n    }\n\n  \n\n}\n",
  "sourcePath": "/home/akshaymuralidharan/Documents/Desktop/CED/Truffle/KBA Project/FVS/contracts/FVS.sol",
  "compiler": {
    "name": "solc",
    "version": "0.5.0+commit.1d4f565a.Emscripten.clang"
  },
  "schemaVersion": "3.0.9",
  "updatedAt": "2019-05-23T10:00:03.615Z",
  "devdoc": {
    "methods": {}
  },
  "userdoc": {
    "methods": {}
  }
}